{
  "_format": "hh-sol-artifact-1",
  "contractName": "DrawNFT",
  "sourceName": "contracts/DrawNFT.sol",
  "abi": [
    {
      "inputs": [],
      "stateMutability": "nonpayable",
      "type": "constructor"
    },
    {
      "anonymous": false,
      "inputs": [
        {
          "indexed": true,
          "internalType": "address",
          "name": "owner",
          "type": "address"
        },
        {
          "indexed": true,
          "internalType": "address",
          "name": "approved",
          "type": "address"
        },
        {
          "indexed": true,
          "internalType": "uint256",
          "name": "tokenId",
          "type": "uint256"
        }
      ],
      "name": "Approval",
      "type": "event"
    },
    {
      "anonymous": false,
      "inputs": [
        {
          "indexed": true,
          "internalType": "address",
          "name": "owner",
          "type": "address"
        },
        {
          "indexed": true,
          "internalType": "address",
          "name": "operator",
          "type": "address"
        },
        {
          "indexed": false,
          "internalType": "bool",
          "name": "approved",
          "type": "bool"
        }
      ],
      "name": "ApprovalForAll",
      "type": "event"
    },
    {
      "anonymous": false,
      "inputs": [
        {
          "indexed": true,
          "internalType": "address",
          "name": "previousOwner",
          "type": "address"
        },
        {
          "indexed": true,
          "internalType": "address",
          "name": "newOwner",
          "type": "address"
        }
      ],
      "name": "OwnershipTransferred",
      "type": "event"
    },
    {
      "anonymous": false,
      "inputs": [
        {
          "indexed": true,
          "internalType": "address",
          "name": "from",
          "type": "address"
        },
        {
          "indexed": true,
          "internalType": "address",
          "name": "to",
          "type": "address"
        },
        {
          "indexed": true,
          "internalType": "uint256",
          "name": "tokenId",
          "type": "uint256"
        }
      ],
      "name": "Transfer",
      "type": "event"
    },
    {
      "inputs": [
        {
          "internalType": "address",
          "name": "to",
          "type": "address"
        },
        {
          "internalType": "uint256",
          "name": "tokenId",
          "type": "uint256"
        }
      ],
      "name": "approve",
      "outputs": [],
      "stateMutability": "nonpayable",
      "type": "function"
    },
    {
      "inputs": [
        {
          "internalType": "address",
          "name": "owner",
          "type": "address"
        }
      ],
      "name": "balanceOf",
      "outputs": [
        {
          "internalType": "uint256",
          "name": "",
          "type": "uint256"
        }
      ],
      "stateMutability": "view",
      "type": "function"
    },
    {
      "inputs": [
        {
          "internalType": "uint256",
          "name": "tokenId",
          "type": "uint256"
        }
      ],
      "name": "getApproved",
      "outputs": [
        {
          "internalType": "address",
          "name": "",
          "type": "address"
        }
      ],
      "stateMutability": "view",
      "type": "function"
    },
    {
      "inputs": [
        {
          "internalType": "address",
          "name": "owner",
          "type": "address"
        },
        {
          "internalType": "address",
          "name": "operator",
          "type": "address"
        }
      ],
      "name": "isApprovedForAll",
      "outputs": [
        {
          "internalType": "bool",
          "name": "",
          "type": "bool"
        }
      ],
      "stateMutability": "view",
      "type": "function"
    },
    {
      "inputs": [],
      "name": "name",
      "outputs": [
        {
          "internalType": "string",
          "name": "",
          "type": "string"
        }
      ],
      "stateMutability": "view",
      "type": "function"
    },
    {
      "inputs": [],
      "name": "owner",
      "outputs": [
        {
          "internalType": "address",
          "name": "",
          "type": "address"
        }
      ],
      "stateMutability": "view",
      "type": "function"
    },
    {
      "inputs": [
        {
          "internalType": "uint256",
          "name": "tokenId",
          "type": "uint256"
        }
      ],
      "name": "ownerOf",
      "outputs": [
        {
          "internalType": "address",
          "name": "",
          "type": "address"
        }
      ],
      "stateMutability": "view",
      "type": "function"
    },
    {
      "inputs": [
        {
          "internalType": "address",
          "name": "addr",
          "type": "address"
        }
      ],
      "name": "readNonce",
      "outputs": [
        {
          "internalType": "uint256",
          "name": "",
          "type": "uint256"
        }
      ],
      "stateMutability": "view",
      "type": "function"
    },
    {
      "inputs": [],
      "name": "renounceOwnership",
      "outputs": [],
      "stateMutability": "nonpayable",
      "type": "function"
    },
    {
      "inputs": [
        {
          "internalType": "string",
          "name": "externalTokenURI",
          "type": "string"
        },
        {
          "components": [
            {
              "internalType": "uint8",
              "name": "v",
              "type": "uint8"
            },
            {
              "internalType": "bytes32",
              "name": "r",
              "type": "bytes32"
            },
            {
              "internalType": "bytes32",
              "name": "s",
              "type": "bytes32"
            }
          ],
          "internalType": "struct DrawNFT.SignatureKeys",
          "name": "keys",
          "type": "tuple"
        }
      ],
      "name": "safeMint",
      "outputs": [
        {
          "internalType": "uint256",
          "name": "",
          "type": "uint256"
        }
      ],
      "stateMutability": "payable",
      "type": "function"
    },
    {
      "inputs": [
        {
          "internalType": "address",
          "name": "from",
          "type": "address"
        },
        {
          "internalType": "address",
          "name": "to",
          "type": "address"
        },
        {
          "internalType": "uint256",
          "name": "tokenId",
          "type": "uint256"
        }
      ],
      "name": "safeTransferFrom",
      "outputs": [],
      "stateMutability": "nonpayable",
      "type": "function"
    },
    {
      "inputs": [
        {
          "internalType": "address",
          "name": "from",
          "type": "address"
        },
        {
          "internalType": "address",
          "name": "to",
          "type": "address"
        },
        {
          "internalType": "uint256",
          "name": "tokenId",
          "type": "uint256"
        },
        {
          "internalType": "bytes",
          "name": "data",
          "type": "bytes"
        }
      ],
      "name": "safeTransferFrom",
      "outputs": [],
      "stateMutability": "nonpayable",
      "type": "function"
    },
    {
      "inputs": [
        {
          "internalType": "address",
          "name": "operator",
          "type": "address"
        },
        {
          "internalType": "bool",
          "name": "approved",
          "type": "bool"
        }
      ],
      "name": "setApprovalForAll",
      "outputs": [],
      "stateMutability": "nonpayable",
      "type": "function"
    },
    {
      "inputs": [
        {
          "internalType": "bytes4",
          "name": "interfaceId",
          "type": "bytes4"
        }
      ],
      "name": "supportsInterface",
      "outputs": [
        {
          "internalType": "bool",
          "name": "",
          "type": "bool"
        }
      ],
      "stateMutability": "view",
      "type": "function"
    },
    {
      "inputs": [],
      "name": "symbol",
      "outputs": [
        {
          "internalType": "string",
          "name": "",
          "type": "string"
        }
      ],
      "stateMutability": "view",
      "type": "function"
    },
    {
      "inputs": [
        {
          "internalType": "uint256",
          "name": "tokenId",
          "type": "uint256"
        }
      ],
      "name": "tokenURI",
      "outputs": [
        {
          "internalType": "string",
          "name": "",
          "type": "string"
        }
      ],
      "stateMutability": "view",
      "type": "function"
    },
    {
      "inputs": [
        {
          "internalType": "address",
          "name": "from",
          "type": "address"
        },
        {
          "internalType": "address",
          "name": "to",
          "type": "address"
        },
        {
          "internalType": "uint256",
          "name": "tokenId",
          "type": "uint256"
        }
      ],
      "name": "transferFrom",
      "outputs": [],
      "stateMutability": "nonpayable",
      "type": "function"
    },
    {
      "inputs": [
        {
          "internalType": "address",
          "name": "newOwner",
          "type": "address"
        }
      ],
      "name": "transferOwnership",
      "outputs": [],
      "stateMutability": "nonpayable",
      "type": "function"
    },
    {
      "inputs": [],
      "name": "withdrawMintPayments",
      "outputs": [],
      "stateMutability": "nonpayable",
      "type": "function"
    }
  ],
  "bytecode": "0x608060405273ea42f37aa4f90f8ccf3b007ea01c10fbb1613dc1600a60006101000a81548173ffffffffffffffffffffffffffffffffffffffff021916908373ffffffffffffffffffffffffffffffffffffffff1602179055503480156200006657600080fd5b506040518060400160405280600781526020017f447261774e4654000000000000000000000000000000000000000000000000008152506040518060400160405280600381526020017f44525700000000000000000000000000000000000000000000000000000000008152508160009081620000e4919062000467565b508060019081620000f6919062000467565b505050620001196200010d6200011f60201b60201c565b6200012760201b60201c565b6200054e565b600033905090565b6000600760009054906101000a900473ffffffffffffffffffffffffffffffffffffffff16905081600760006101000a81548173ffffffffffffffffffffffffffffffffffffffff021916908373ffffffffffffffffffffffffffffffffffffffff1602179055508173ffffffffffffffffffffffffffffffffffffffff168173ffffffffffffffffffffffffffffffffffffffff167f8be0079c531659141344cd1fd0a4f28419497f9722a3daafe3b4186f6b6457e060405160405180910390a35050565b600081519050919050565b7f4e487b7100000000000000000000000000000000000000000000000000000000600052604160045260246000fd5b7f4e487b7100000000000000000000000000000000000000000000000000000000600052602260045260246000fd5b600060028204905060018216806200026f57607f821691505b60208210810362000285576200028462000227565b5b50919050565b60008190508160005260206000209050919050565b60006020601f8301049050919050565b600082821b905092915050565b600060088302620002ef7fffffffffffffffffffffffffffffffffffffffffffffffffffffffffffffffff82620002b0565b620002fb8683620002b0565b95508019841693508086168417925050509392505050565b6000819050919050565b6000819050919050565b600062000348620003426200033c8462000313565b6200031d565b62000313565b9050919050565b6000819050919050565b620003648362000327565b6200037c62000373826200034f565b848454620002bd565b825550505050565b600090565b6200039362000384565b620003a081848462000359565b505050565b5b81811015620003c857620003bc60008262000389565b600181019050620003a6565b5050565b601f8211156200041757620003e1816200028b565b620003ec84620002a0565b81016020851015620003fc578190505b620004146200040b85620002a0565b830182620003a5565b50505b505050565b600082821c905092915050565b60006200043c600019846008026200041c565b1980831691505092915050565b600062000457838362000429565b9150826002028217905092915050565b6200047282620001ed565b67ffffffffffffffff8111156200048e576200048d620001f8565b5b6200049a825462000256565b620004a7828285620003cc565b600060209050601f831160018114620004df5760008415620004ca578287015190505b620004d6858262000449565b86555062000546565b601f198416620004ef866200028b565b60005b828110156200051957848901518255600182019150602085019450602081019050620004f2565b8683101562000539578489015162000535601f89168262000429565b8355505b6001600288020188555050505b505050505050565b613b81806200055e6000396000f3fe6080604052600436106101145760003560e01c806370a08231116100a0578063a22cb46511610064578063a22cb465146103a4578063b88d4fde146103cd578063c87b56dd146103f6578063e985e9c514610433578063f2fde38b1461047057610114565b806370a08231146102bd578063715018a6146102fa57806377788757146103115780638da5cb5b1461034e57806395d89b411461037957610114565b806323b872dd116100e757806323b872dd146101e757806342842e0e1461021057806362b9c600146102395780636352211e146102505780636cef76b11461028d57610114565b806301ffc9a71461011957806306fdde0314610156578063081812fc14610181578063095ea7b3146101be575b600080fd5b34801561012557600080fd5b50610140600480360381019061013b91906124a3565b610499565b60405161014d91906124eb565b60405180910390f35b34801561016257600080fd5b5061016b61057b565b6040516101789190612596565b60405180910390f35b34801561018d57600080fd5b506101a860048036038101906101a391906125ee565b61060d565b6040516101b5919061265c565b60405180910390f35b3480156101ca57600080fd5b506101e560048036038101906101e091906126a3565b610653565b005b3480156101f357600080fd5b5061020e600480360381019061020991906126e3565b61076a565b005b34801561021c57600080fd5b50610237600480360381019061023291906126e3565b6107ca565b005b34801561024557600080fd5b5061024e6107ea565b005b34801561025c57600080fd5b50610277600480360381019061027291906125ee565b61083b565b604051610284919061265c565b60405180910390f35b6102a760048036038101906102a291906127bf565b6108c1565b6040516102b4919061282e565b60405180910390f35b3480156102c957600080fd5b506102e460048036038101906102df9190612849565b610c58565b6040516102f1919061282e565b60405180910390f35b34801561030657600080fd5b5061030f610d0f565b005b34801561031d57600080fd5b5061033860048036038101906103339190612849565b610d23565b604051610345919061282e565b60405180910390f35b34801561035a57600080fd5b50610363610d73565b604051610370919061265c565b60405180910390f35b34801561038557600080fd5b5061038e610d9d565b60405161039b9190612596565b60405180910390f35b3480156103b057600080fd5b506103cb60048036038101906103c691906128a2565b610e2f565b005b3480156103d957600080fd5b506103f460048036038101906103ef9190612a12565b610e45565b005b34801561040257600080fd5b5061041d600480360381019061041891906125ee565b610ea7565b60405161042a9190612596565b60405180910390f35b34801561043f57600080fd5b5061045a60048036038101906104559190612a95565b610fb9565b60405161046791906124eb565b60405180910390f35b34801561047c57600080fd5b5061049760048036038101906104929190612849565b61104d565b005b60007f80ac58cd000000000000000000000000000000000000000000000000000000007bffffffffffffffffffffffffffffffffffffffffffffffffffffffff1916827bffffffffffffffffffffffffffffffffffffffffffffffffffffffff1916148061056457507f5b5e139f000000000000000000000000000000000000000000000000000000007bffffffffffffffffffffffffffffffffffffffffffffffffffffffff1916827bffffffffffffffffffffffffffffffffffffffffffffffffffffffff1916145b806105745750610573826110d0565b5b9050919050565b60606000805461058a90612b04565b80601f01602080910402602001604051908101604052809291908181526020018280546105b690612b04565b80156106035780601f106105d857610100808354040283529160200191610603565b820191906000526020600020905b8154815290600101906020018083116105e657829003601f168201915b5050505050905090565b60006106188261113a565b6004600083815260200190815260200160002060009054906101000a900473ffffffffffffffffffffffffffffffffffffffff169050919050565b600061065e8261083b565b90508073ffffffffffffffffffffffffffffffffffffffff168373ffffffffffffffffffffffffffffffffffffffff16036106ce576040517f08c379a00000000000000000000000000000000000000000000000000000000081526004016106c590612ba7565b60405180910390fd5b8073ffffffffffffffffffffffffffffffffffffffff166106ed611185565b73ffffffffffffffffffffffffffffffffffffffff16148061071c575061071b81610716611185565b610fb9565b5b61075b576040517f08c379a000000000000000000000000000000000000000000000000000000000815260040161075290612c39565b60405180910390fd5b610765838361118d565b505050565b61077b610775611185565b82611246565b6107ba576040517f08c379a00000000000000000000000000000000000000000000000000000000081526004016107b190612ccb565b60405180910390fd5b6107c58383836112db565b505050565b6107e583838360405180602001604052806000815250610e45565b505050565b6107f26115d4565b3373ffffffffffffffffffffffffffffffffffffffff166108fc479081150290604051600060405180830381858888f19350505050158015610838573d6000803e3d6000fd5b50565b60008061084783611652565b9050600073ffffffffffffffffffffffffffffffffffffffff168173ffffffffffffffffffffffffffffffffffffffff16036108b8576040517f08c379a00000000000000000000000000000000000000000000000000000000081526004016108af90612d37565b60405180910390fd5b80915050919050565b600081600061090d600960003373ffffffffffffffffffffffffffffffffffffffff1673ffffffffffffffffffffffffffffffffffffffff16815260200190815260200160002061168f565b905060003373ffffffffffffffffffffffffffffffffffffffff16905060006109358361169d565b61094083601461176b565b604051602001610951929190612d93565b60405160208183030381529060405290506000816040516020016109759190612db7565b60405160208183030381529060405280519060200120905060006040518060400160405280601c81526020017f19457468657265756d205369676e6564204d6573736167653a0a3332000000008152509050600081836040516020016109dc929190612e40565b6040516020818303038152906040528051906020012090506000600182896000016020810190610a0c9190612ea1565b8a602001358b6040013560405160008152602001604052604051610a339493929190612eec565b6020604051602081039080840390855afa158015610a55573d6000803e3d6000fd5b505050602060405103519050600a60009054906101000a900473ffffffffffffffffffffffffffffffffffffffff1673ffffffffffffffffffffffffffffffffffffffff168173ffffffffffffffffffffffffffffffffffffffff1614610af1576040517f08c379a0000000000000000000000000000000000000000000000000000000008152600401610ae890612fa3565b60405180910390fd5b6000610afd600861168f565b90506115b38110610b43576040517f08c379a0000000000000000000000000000000000000000000000000000000008152600401610b3a90613035565b60405180910390fd5b668e1bc9bf040000341015610b8d576040517f08c379a0000000000000000000000000000000000000000000000000000000008152600401610b84906130ed565b60405180910390fd5b610b9760086119a7565b6000610ba3600861168f565b9050610baf33826119bd565b610bfd818f8f8080601f016020809104026020016040519081016040528093929190818152602001838380828437600081840152601f19601f820116905080830192505050505050506119db565b809a505050610c49600960003373ffffffffffffffffffffffffffffffffffffffff1673ffffffffffffffffffffffffffffffffffffffff1681526020019081526020016000206119a7565b50505050505050509392505050565b60008073ffffffffffffffffffffffffffffffffffffffff168273ffffffffffffffffffffffffffffffffffffffff1603610cc8576040517f08c379a0000000000000000000000000000000000000000000000000000000008152600401610cbf9061317f565b60405180910390fd5b600360008373ffffffffffffffffffffffffffffffffffffffff1673ffffffffffffffffffffffffffffffffffffffff168152602001908152602001600020549050919050565b610d176115d4565b610d216000611a48565b565b6000610d6c600960008473ffffffffffffffffffffffffffffffffffffffff1673ffffffffffffffffffffffffffffffffffffffff16815260200190815260200160002061168f565b9050919050565b6000600760009054906101000a900473ffffffffffffffffffffffffffffffffffffffff16905090565b606060018054610dac90612b04565b80601f0160208091040260200160405190810160405280929190818152602001828054610dd890612b04565b8015610e255780601f10610dfa57610100808354040283529160200191610e25565b820191906000526020600020905b815481529060010190602001808311610e0857829003601f168201915b5050505050905090565b610e41610e3a611185565b8383611b0e565b5050565b610e56610e50611185565b83611246565b610e95576040517f08c379a0000000000000000000000000000000000000000000000000000000008152600401610e8c90612ccb565b60405180910390fd5b610ea184848484611c7a565b50505050565b6060610eb28261113a565b6000600660008481526020019081526020016000208054610ed290612b04565b80601f0160208091040260200160405190810160405280929190818152602001828054610efe90612b04565b8015610f4b5780601f10610f2057610100808354040283529160200191610f4b565b820191906000526020600020905b815481529060010190602001808311610f2e57829003601f168201915b505050505090506000610f5c611cd6565b90506000815103610f71578192505050610fb4565b600082511115610fa6578082604051602001610f8e929190612d93565b60405160208183030381529060405292505050610fb4565b610faf84611ced565b925050505b919050565b6000600560008473ffffffffffffffffffffffffffffffffffffffff1673ffffffffffffffffffffffffffffffffffffffff16815260200190815260200160002060008373ffffffffffffffffffffffffffffffffffffffff1673ffffffffffffffffffffffffffffffffffffffff16815260200190815260200160002060009054906101000a900460ff16905092915050565b6110556115d4565b600073ffffffffffffffffffffffffffffffffffffffff168173ffffffffffffffffffffffffffffffffffffffff16036110c4576040517f08c379a00000000000000000000000000000000000000000000000000000000081526004016110bb90613211565b60405180910390fd5b6110cd81611a48565b50565b60007f01ffc9a7000000000000000000000000000000000000000000000000000000007bffffffffffffffffffffffffffffffffffffffffffffffffffffffff1916827bffffffffffffffffffffffffffffffffffffffffffffffffffffffff1916149050919050565b61114381611d55565b611182576040517f08c379a000000000000000000000000000000000000000000000000000000000815260040161117990612d37565b60405180910390fd5b50565b600033905090565b816004600083815260200190815260200160002060006101000a81548173ffffffffffffffffffffffffffffffffffffffff021916908373ffffffffffffffffffffffffffffffffffffffff160217905550808273ffffffffffffffffffffffffffffffffffffffff166112008361083b565b73ffffffffffffffffffffffffffffffffffffffff167f8c5be1e5ebec7d5bd14f71427d1e84f3dd0314c0f7b2291e5b200ac8c7c3b92560405160405180910390a45050565b6000806112528361083b565b90508073ffffffffffffffffffffffffffffffffffffffff168473ffffffffffffffffffffffffffffffffffffffff16148061129457506112938185610fb9565b5b806112d257508373ffffffffffffffffffffffffffffffffffffffff166112ba8461060d565b73ffffffffffffffffffffffffffffffffffffffff16145b91505092915050565b8273ffffffffffffffffffffffffffffffffffffffff166112fb8261083b565b73ffffffffffffffffffffffffffffffffffffffff1614611351576040517f08c379a0000000000000000000000000000000000000000000000000000000008152600401611348906132a3565b60405180910390fd5b600073ffffffffffffffffffffffffffffffffffffffff168273ffffffffffffffffffffffffffffffffffffffff16036113c0576040517f08c379a00000000000000000000000000000000000000000000000000000000081526004016113b790613335565b60405180910390fd5b6113cd8383836001611d96565b8273ffffffffffffffffffffffffffffffffffffffff166113ed8261083b565b73ffffffffffffffffffffffffffffffffffffffff1614611443576040517f08c379a000000000000000000000000000000000000000000000000000000000815260040161143a906132a3565b60405180910390fd5b6004600082815260200190815260200160002060006101000a81549073ffffffffffffffffffffffffffffffffffffffff02191690556001600360008573ffffffffffffffffffffffffffffffffffffffff1673ffffffffffffffffffffffffffffffffffffffff168152602001908152602001600020600082825403925050819055506001600360008473ffffffffffffffffffffffffffffffffffffffff1673ffffffffffffffffffffffffffffffffffffffff16815260200190815260200160002060008282540192505081905550816002600083815260200190815260200160002060006101000a81548173ffffffffffffffffffffffffffffffffffffffff021916908373ffffffffffffffffffffffffffffffffffffffff160217905550808273ffffffffffffffffffffffffffffffffffffffff168473ffffffffffffffffffffffffffffffffffffffff167fddf252ad1be2c89b69c2b068fc378daa952ba7f163c4a11628f55a4df523b3ef60405160405180910390a46115cf8383836001611ebc565b505050565b6115dc611185565b73ffffffffffffffffffffffffffffffffffffffff166115fa610d73565b73ffffffffffffffffffffffffffffffffffffffff1614611650576040517f08c379a0000000000000000000000000000000000000000000000000000000008152600401611647906133a1565b60405180910390fd5b565b60006002600083815260200190815260200160002060009054906101000a900473ffffffffffffffffffffffffffffffffffffffff169050919050565b600081600001549050919050565b6060600060016116ac84611ec2565b01905060008167ffffffffffffffff8111156116cb576116ca6128e7565b5b6040519080825280601f01601f1916602001820160405280156116fd5781602001600182028036833780820191505090505b509050600082602001820190505b600115611760578080600190039150507f3031323334353637383961626364656600000000000000000000000000000000600a86061a8153600a8581611754576117536133c1565b5b0494506000850361170b575b819350505050919050565b60606000600283600261177e919061341f565b6117889190613461565b67ffffffffffffffff8111156117a1576117a06128e7565b5b6040519080825280601f01601f1916602001820160405280156117d35781602001600182028036833780820191505090505b5090507f30000000000000000000000000000000000000000000000000000000000000008160008151811061180b5761180a613495565b5b60200101907effffffffffffffffffffffffffffffffffffffffffffffffffffffffffffff1916908160001a9053507f78000000000000000000000000000000000000000000000000000000000000008160018151811061186f5761186e613495565b5b60200101907effffffffffffffffffffffffffffffffffffffffffffffffffffffffffffff1916908160001a905350600060018460026118af919061341f565b6118b99190613461565b90505b6001811115611959577f3031323334353637383961626364656600000000000000000000000000000000600f8616601081106118fb576118fa613495565b5b1a60f81b82828151811061191257611911613495565b5b60200101907effffffffffffffffffffffffffffffffffffffffffffffffffffffffffffff1916908160001a905350600485901c945080611952906134c4565b90506118bc565b506000841461199d576040517f08c379a000000000000000000000000000000000000000000000000000000000815260040161199490613539565b60405180910390fd5b8091505092915050565b6001816000016000828254019250508190555050565b6119d7828260405180602001604052806000815250612015565b5050565b6119e482611d55565b611a23576040517f08c379a0000000000000000000000000000000000000000000000000000000008152600401611a1a906135cb565b60405180910390fd5b80600660008481526020019081526020016000209081611a439190613797565b505050565b6000600760009054906101000a900473ffffffffffffffffffffffffffffffffffffffff16905081600760006101000a81548173ffffffffffffffffffffffffffffffffffffffff021916908373ffffffffffffffffffffffffffffffffffffffff1602179055508173ffffffffffffffffffffffffffffffffffffffff168173ffffffffffffffffffffffffffffffffffffffff167f8be0079c531659141344cd1fd0a4f28419497f9722a3daafe3b4186f6b6457e060405160405180910390a35050565b8173ffffffffffffffffffffffffffffffffffffffff168373ffffffffffffffffffffffffffffffffffffffff1603611b7c576040517f08c379a0000000000000000000000000000000000000000000000000000000008152600401611b73906138b5565b60405180910390fd5b80600560008573ffffffffffffffffffffffffffffffffffffffff1673ffffffffffffffffffffffffffffffffffffffff16815260200190815260200160002060008473ffffffffffffffffffffffffffffffffffffffff1673ffffffffffffffffffffffffffffffffffffffff16815260200190815260200160002060006101000a81548160ff0219169083151502179055508173ffffffffffffffffffffffffffffffffffffffff168373ffffffffffffffffffffffffffffffffffffffff167f17307eab39ab6107e8899845ad3d59bd9653f200f220920489ca2b5937696c3183604051611c6d91906124eb565b60405180910390a3505050565b611c858484846112db565b611c9184848484612070565b611cd0576040517f08c379a0000000000000000000000000000000000000000000000000000000008152600401611cc790613947565b60405180910390fd5b50505050565b606060405180602001604052806000815250905090565b6060611cf88261113a565b6000611d02611cd6565b90506000815111611d225760405180602001604052806000815250611d4d565b80611d2c8461169d565b604051602001611d3d929190612d93565b6040516020818303038152906040525b915050919050565b60008073ffffffffffffffffffffffffffffffffffffffff16611d7783611652565b73ffffffffffffffffffffffffffffffffffffffff1614159050919050565b6001811115611eb657600073ffffffffffffffffffffffffffffffffffffffff168473ffffffffffffffffffffffffffffffffffffffff1614611e2a5780600360008673ffffffffffffffffffffffffffffffffffffffff1673ffffffffffffffffffffffffffffffffffffffff1681526020019081526020016000206000828254611e229190613967565b925050819055505b600073ffffffffffffffffffffffffffffffffffffffff168373ffffffffffffffffffffffffffffffffffffffff1614611eb55780600360008573ffffffffffffffffffffffffffffffffffffffff1673ffffffffffffffffffffffffffffffffffffffff1681526020019081526020016000206000828254611ead9190613461565b925050819055505b5b50505050565b50505050565b600080600090507a184f03e93ff9f4daa797ed6e38ed64bf6a1f0100000000000000008310611f20577a184f03e93ff9f4daa797ed6e38ed64bf6a1f0100000000000000008381611f1657611f156133c1565b5b0492506040810190505b6d04ee2d6d415b85acef81000000008310611f5d576d04ee2d6d415b85acef81000000008381611f5357611f526133c1565b5b0492506020810190505b662386f26fc100008310611f8c57662386f26fc100008381611f8257611f816133c1565b5b0492506010810190505b6305f5e1008310611fb5576305f5e1008381611fab57611faa6133c1565b5b0492506008810190505b6127108310611fda576127108381611fd057611fcf6133c1565b5b0492506004810190505b60648310611ffd5760648381611ff357611ff26133c1565b5b0492506002810190505b600a831061200c576001810190505b80915050919050565b61201f83836121f7565b61202c6000848484612070565b61206b576040517f08c379a000000000000000000000000000000000000000000000000000000000815260040161206290613947565b60405180910390fd5b505050565b60006120918473ffffffffffffffffffffffffffffffffffffffff16612414565b156121ea578373ffffffffffffffffffffffffffffffffffffffff1663150b7a026120ba611185565b8786866040518563ffffffff1660e01b81526004016120dc94939291906139e5565b6020604051808303816000875af192505050801561211857506040513d601f19601f820116820180604052508101906121159190613a46565b60015b61219a573d8060008114612148576040519150601f19603f3d011682016040523d82523d6000602084013e61214d565b606091505b506000815103612192576040517f08c379a000000000000000000000000000000000000000000000000000000000815260040161218990613947565b60405180910390fd5b805181602001fd5b63150b7a0260e01b7bffffffffffffffffffffffffffffffffffffffffffffffffffffffff1916817bffffffffffffffffffffffffffffffffffffffffffffffffffffffff1916149150506121ef565b600190505b949350505050565b600073ffffffffffffffffffffffffffffffffffffffff168273ffffffffffffffffffffffffffffffffffffffff1603612266576040517f08c379a000000000000000000000000000000000000000000000000000000000815260040161225d90613abf565b60405180910390fd5b61226f81611d55565b156122af576040517f08c379a00000000000000000000000000000000000000000000000000000000081526004016122a690613b2b565b60405180910390fd5b6122bd600083836001611d96565b6122c681611d55565b15612306576040517f08c379a00000000000000000000000000000000000000000000000000000000081526004016122fd90613b2b565b60405180910390fd5b6001600360008473ffffffffffffffffffffffffffffffffffffffff1673ffffffffffffffffffffffffffffffffffffffff16815260200190815260200160002060008282540192505081905550816002600083815260200190815260200160002060006101000a81548173ffffffffffffffffffffffffffffffffffffffff021916908373ffffffffffffffffffffffffffffffffffffffff160217905550808273ffffffffffffffffffffffffffffffffffffffff16600073ffffffffffffffffffffffffffffffffffffffff167fddf252ad1be2c89b69c2b068fc378daa952ba7f163c4a11628f55a4df523b3ef60405160405180910390a4612410600083836001611ebc565b5050565b6000808273ffffffffffffffffffffffffffffffffffffffff163b119050919050565b6000604051905090565b600080fd5b600080fd5b60007fffffffff0000000000000000000000000000000000000000000000000000000082169050919050565b6124808161244b565b811461248b57600080fd5b50565b60008135905061249d81612477565b92915050565b6000602082840312156124b9576124b8612441565b5b60006124c78482850161248e565b91505092915050565b60008115159050919050565b6124e5816124d0565b82525050565b600060208201905061250060008301846124dc565b92915050565b600081519050919050565b600082825260208201905092915050565b60005b83811015612540578082015181840152602081019050612525565b60008484015250505050565b6000601f19601f8301169050919050565b600061256882612506565b6125728185612511565b9350612582818560208601612522565b61258b8161254c565b840191505092915050565b600060208201905081810360008301526125b0818461255d565b905092915050565b6000819050919050565b6125cb816125b8565b81146125d657600080fd5b50565b6000813590506125e8816125c2565b92915050565b60006020828403121561260457612603612441565b5b6000612612848285016125d9565b91505092915050565b600073ffffffffffffffffffffffffffffffffffffffff82169050919050565b60006126468261261b565b9050919050565b6126568161263b565b82525050565b6000602082019050612671600083018461264d565b92915050565b6126808161263b565b811461268b57600080fd5b50565b60008135905061269d81612677565b92915050565b600080604083850312156126ba576126b9612441565b5b60006126c88582860161268e565b92505060206126d9858286016125d9565b9150509250929050565b6000806000606084860312156126fc576126fb612441565b5b600061270a8682870161268e565b935050602061271b8682870161268e565b925050604061272c868287016125d9565b9150509250925092565b600080fd5b600080fd5b600080fd5b60008083601f84011261275b5761275a612736565b5b8235905067ffffffffffffffff8111156127785761277761273b565b5b60208301915083600182028301111561279457612793612740565b5b9250929050565b600080fd5b6000606082840312156127b6576127b561279b565b5b81905092915050565b6000806000608084860312156127d8576127d7612441565b5b600084013567ffffffffffffffff8111156127f6576127f5612446565b5b61280286828701612745565b93509350506020612815868287016127a0565b9150509250925092565b612828816125b8565b82525050565b6000602082019050612843600083018461281f565b92915050565b60006020828403121561285f5761285e612441565b5b600061286d8482850161268e565b91505092915050565b61287f816124d0565b811461288a57600080fd5b50565b60008135905061289c81612876565b92915050565b600080604083850312156128b9576128b8612441565b5b60006128c78582860161268e565b92505060206128d88582860161288d565b9150509250929050565b600080fd5b7f4e487b7100000000000000000000000000000000000000000000000000000000600052604160045260246000fd5b61291f8261254c565b810181811067ffffffffffffffff8211171561293e5761293d6128e7565b5b80604052505050565b6000612951612437565b905061295d8282612916565b919050565b600067ffffffffffffffff82111561297d5761297c6128e7565b5b6129868261254c565b9050602081019050919050565b82818337600083830152505050565b60006129b56129b084612962565b612947565b9050828152602081018484840111156129d1576129d06128e2565b5b6129dc848285612993565b509392505050565b600082601f8301126129f9576129f8612736565b5b8135612a098482602086016129a2565b91505092915050565b60008060008060808587031215612a2c57612a2b612441565b5b6000612a3a8782880161268e565b9450506020612a4b8782880161268e565b9350506040612a5c878288016125d9565b925050606085013567ffffffffffffffff811115612a7d57612a7c612446565b5b612a89878288016129e4565b91505092959194509250565b60008060408385031215612aac57612aab612441565b5b6000612aba8582860161268e565b9250506020612acb8582860161268e565b9150509250929050565b7f4e487b7100000000000000000000000000000000000000000000000000000000600052602260045260246000fd5b60006002820490506001821680612b1c57607f821691505b602082108103612b2f57612b2e612ad5565b5b50919050565b7f4552433732313a20617070726f76616c20746f2063757272656e74206f776e6560008201527f7200000000000000000000000000000000000000000000000000000000000000602082015250565b6000612b91602183612511565b9150612b9c82612b35565b604082019050919050565b60006020820190508181036000830152612bc081612b84565b9050919050565b7f4552433732313a20617070726f76652063616c6c6572206973206e6f7420746f60008201527f6b656e206f776e6572206f7220617070726f76656420666f7220616c6c000000602082015250565b6000612c23603d83612511565b9150612c2e82612bc7565b604082019050919050565b60006020820190508181036000830152612c5281612c16565b9050919050565b7f4552433732313a2063616c6c6572206973206e6f7420746f6b656e206f776e6560008201527f72206f7220617070726f76656400000000000000000000000000000000000000602082015250565b6000612cb5602d83612511565b9150612cc082612c59565b604082019050919050565b60006020820190508181036000830152612ce481612ca8565b9050919050565b7f4552433732313a20696e76616c696420746f6b656e2049440000000000000000600082015250565b6000612d21601883612511565b9150612d2c82612ceb565b602082019050919050565b60006020820190508181036000830152612d5081612d14565b9050919050565b600081905092915050565b6000612d6d82612506565b612d778185612d57565b9350612d87818560208601612522565b80840191505092915050565b6000612d9f8285612d62565b9150612dab8284612d62565b91508190509392505050565b6000612dc38284612d62565b915081905092915050565b600081519050919050565b600081905092915050565b6000612def82612dce565b612df98185612dd9565b9350612e09818560208601612522565b80840191505092915050565b6000819050919050565b6000819050919050565b612e3a612e3582612e15565b612e1f565b82525050565b6000612e4c8285612de4565b9150612e588284612e29565b6020820191508190509392505050565b600060ff82169050919050565b612e7e81612e68565b8114612e8957600080fd5b50565b600081359050612e9b81612e75565b92915050565b600060208284031215612eb757612eb6612441565b5b6000612ec584828501612e8c565b91505092915050565b612ed781612e15565b82525050565b612ee681612e68565b82525050565b6000608082019050612f016000830187612ece565b612f0e6020830186612edd565b612f1b6040830185612ece565b612f286060830184612ece565b95945050505050565b7f5468652070726f7669646564207369676e617475726520697320696e76616c6960008201527f642e000000000000000000000000000000000000000000000000000000000000602082015250565b6000612f8d602283612511565b9150612f9882612f31565b604082019050919050565b60006020820190508181036000830152612fbc81612f80565b9050919050565b7f5468652072657175657374656420616374696f6e20657863656564732074686560008201527f20617661696c61626c6520746f6b656e20737570706c792e0000000000000000602082015250565b600061301f603883612511565b915061302a82612fc3565b604082019050919050565b6000602082019050818103600083015261304e81613012565b9050919050565b7f496e73756666696369656e742045544820686173206265656e207472616e736d60008201527f69747465642e20546865206d696e696d756d20726571756972656420616d6f7560208201527f6e7420746f206d696e7420616e204e465420697320302e3034204554482e0000604082015250565b60006130d7605e83612511565b91506130e282613055565b606082019050919050565b60006020820190508181036000830152613106816130ca565b9050919050565b7f4552433732313a2061646472657373207a65726f206973206e6f74206120766160008201527f6c6964206f776e65720000000000000000000000000000000000000000000000602082015250565b6000613169602983612511565b91506131748261310d565b604082019050919050565b600060208201905081810360008301526131988161315c565b9050919050565b7f4f776e61626c653a206e6577206f776e657220697320746865207a65726f206160008201527f6464726573730000000000000000000000000000000000000000000000000000602082015250565b60006131fb602683612511565b91506132068261319f565b604082019050919050565b6000602082019050818103600083015261322a816131ee565b9050919050565b7f4552433732313a207472616e736665722066726f6d20696e636f72726563742060008201527f6f776e6572000000000000000000000000000000000000000000000000000000602082015250565b600061328d602583612511565b915061329882613231565b604082019050919050565b600060208201905081810360008301526132bc81613280565b9050919050565b7f4552433732313a207472616e7366657220746f20746865207a65726f2061646460008201527f7265737300000000000000000000000000000000000000000000000000000000602082015250565b600061331f602483612511565b915061332a826132c3565b604082019050919050565b6000602082019050818103600083015261334e81613312565b9050919050565b7f4f776e61626c653a2063616c6c6572206973206e6f7420746865206f776e6572600082015250565b600061338b602083612511565b915061339682613355565b602082019050919050565b600060208201905081810360008301526133ba8161337e565b9050919050565b7f4e487b7100000000000000000000000000000000000000000000000000000000600052601260045260246000fd5b7f4e487b7100000000000000000000000000000000000000000000000000000000600052601160045260246000fd5b600061342a826125b8565b9150613435836125b8565b9250828202613443816125b8565b9150828204841483151761345a576134596133f0565b5b5092915050565b600061346c826125b8565b9150613477836125b8565b925082820190508082111561348f5761348e6133f0565b5b92915050565b7f4e487b7100000000000000000000000000000000000000000000000000000000600052603260045260246000fd5b60006134cf826125b8565b9150600082036134e2576134e16133f0565b5b600182039050919050565b7f537472696e67733a20686578206c656e67746820696e73756666696369656e74600082015250565b6000613523602083612511565b915061352e826134ed565b602082019050919050565b6000602082019050818103600083015261355281613516565b9050919050565b7f45524337323155524953746f726167653a2055524920736574206f66206e6f6e60008201527f6578697374656e7420746f6b656e000000000000000000000000000000000000602082015250565b60006135b5602e83612511565b91506135c082613559565b604082019050919050565b600060208201905081810360008301526135e4816135a8565b9050919050565b60008190508160005260206000209050919050565b60006020601f8301049050919050565b600082821b905092915050565b60006008830261364d7fffffffffffffffffffffffffffffffffffffffffffffffffffffffffffffffff82613610565b6136578683613610565b95508019841693508086168417925050509392505050565b6000819050919050565b600061369461368f61368a846125b8565b61366f565b6125b8565b9050919050565b6000819050919050565b6136ae83613679565b6136c26136ba8261369b565b84845461361d565b825550505050565b600090565b6136d76136ca565b6136e28184846136a5565b505050565b5b81811015613706576136fb6000826136cf565b6001810190506136e8565b5050565b601f82111561374b5761371c816135eb565b61372584613600565b81016020851015613734578190505b61374861374085613600565b8301826136e7565b50505b505050565b600082821c905092915050565b600061376e60001984600802613750565b1980831691505092915050565b6000613787838361375d565b9150826002028217905092915050565b6137a082612506565b67ffffffffffffffff8111156137b9576137b86128e7565b5b6137c38254612b04565b6137ce82828561370a565b600060209050601f83116001811461380157600084156137ef578287015190505b6137f9858261377b565b865550613861565b601f19841661380f866135eb565b60005b8281101561383757848901518255600182019150602085019450602081019050613812565b868310156138545784890151613850601f89168261375d565b8355505b6001600288020188555050505b505050505050565b7f4552433732313a20617070726f766520746f2063616c6c657200000000000000600082015250565b600061389f601983612511565b91506138aa82613869565b602082019050919050565b600060208201905081810360008301526138ce81613892565b9050919050565b7f4552433732313a207472616e7366657220746f206e6f6e20455243373231526560008201527f63656976657220696d706c656d656e7465720000000000000000000000000000602082015250565b6000613931603283612511565b915061393c826138d5565b604082019050919050565b6000602082019050818103600083015261396081613924565b9050919050565b6000613972826125b8565b915061397d836125b8565b9250828203905081811115613995576139946133f0565b5b92915050565b600082825260208201905092915050565b60006139b782612dce565b6139c1818561399b565b93506139d1818560208601612522565b6139da8161254c565b840191505092915050565b60006080820190506139fa600083018761264d565b613a07602083018661264d565b613a14604083018561281f565b8181036060830152613a2681846139ac565b905095945050505050565b600081519050613a4081612477565b92915050565b600060208284031215613a5c57613a5b612441565b5b6000613a6a84828501613a31565b91505092915050565b7f4552433732313a206d696e7420746f20746865207a65726f2061646472657373600082015250565b6000613aa9602083612511565b9150613ab482613a73565b602082019050919050565b60006020820190508181036000830152613ad881613a9c565b9050919050565b7f4552433732313a20746f6b656e20616c7265616479206d696e74656400000000600082015250565b6000613b15601c83612511565b9150613b2082613adf565b602082019050919050565b60006020820190508181036000830152613b4481613b08565b905091905056fea26469706673582212204315c7a92eb678d9308c07aeba1799eacefc950d25a8c010b67aecbfd5dd299564736f6c63430008110033",
  "linkReferences": {},
  "deployedLinkReferences": {}
}