{
  "contractName": "DrawNFT",
  "abi": [
    {
      "inputs": [],
      "stateMutability": "nonpayable",
      "type": "constructor"
    },
    {
      "anonymous": false,
      "inputs": [
        {
          "indexed": true,
          "internalType": "address",
          "name": "owner",
          "type": "address"
        },
        {
          "indexed": true,
          "internalType": "address",
          "name": "approved",
          "type": "address"
        },
        {
          "indexed": true,
          "internalType": "uint256",
          "name": "tokenId",
          "type": "uint256"
        }
      ],
      "name": "Approval",
      "type": "event"
    },
    {
      "anonymous": false,
      "inputs": [
        {
          "indexed": true,
          "internalType": "address",
          "name": "owner",
          "type": "address"
        },
        {
          "indexed": true,
          "internalType": "address",
          "name": "operator",
          "type": "address"
        },
        {
          "indexed": false,
          "internalType": "bool",
          "name": "approved",
          "type": "bool"
        }
      ],
      "name": "ApprovalForAll",
      "type": "event"
    },
    {
      "anonymous": false,
      "inputs": [
        {
          "indexed": false,
          "internalType": "string",
          "name": "message",
          "type": "string"
        }
      ],
      "name": "MyEvent",
      "type": "event"
    },
    {
      "anonymous": false,
      "inputs": [
        {
          "indexed": true,
          "internalType": "address",
          "name": "previousOwner",
          "type": "address"
        },
        {
          "indexed": true,
          "internalType": "address",
          "name": "newOwner",
          "type": "address"
        }
      ],
      "name": "OwnershipTransferred",
      "type": "event"
    },
    {
      "anonymous": false,
      "inputs": [
        {
          "indexed": true,
          "internalType": "address",
          "name": "from",
          "type": "address"
        },
        {
          "indexed": true,
          "internalType": "address",
          "name": "to",
          "type": "address"
        },
        {
          "indexed": true,
          "internalType": "uint256",
          "name": "tokenId",
          "type": "uint256"
        }
      ],
      "name": "Transfer",
      "type": "event"
    },
    {
      "inputs": [],
      "name": "MINT_PRICE",
      "outputs": [
        {
          "internalType": "uint256",
          "name": "",
          "type": "uint256"
        }
      ],
      "stateMutability": "view",
      "type": "function",
      "constant": true
    },
    {
      "inputs": [],
      "name": "TOTAL_SUPPLY",
      "outputs": [
        {
          "internalType": "uint256",
          "name": "",
          "type": "uint256"
        }
      ],
      "stateMutability": "view",
      "type": "function",
      "constant": true
    },
    {
      "inputs": [
        {
          "internalType": "address",
          "name": "to",
          "type": "address"
        },
        {
          "internalType": "uint256",
          "name": "tokenId",
          "type": "uint256"
        }
      ],
      "name": "approve",
      "outputs": [],
      "stateMutability": "nonpayable",
      "type": "function"
    },
    {
      "inputs": [
        {
          "internalType": "address",
          "name": "owner",
          "type": "address"
        }
      ],
      "name": "balanceOf",
      "outputs": [
        {
          "internalType": "uint256",
          "name": "",
          "type": "uint256"
        }
      ],
      "stateMutability": "view",
      "type": "function",
      "constant": true
    },
    {
      "inputs": [
        {
          "internalType": "uint256",
          "name": "tokenId",
          "type": "uint256"
        }
      ],
      "name": "getApproved",
      "outputs": [
        {
          "internalType": "address",
          "name": "",
          "type": "address"
        }
      ],
      "stateMutability": "view",
      "type": "function",
      "constant": true
    },
    {
      "inputs": [
        {
          "internalType": "address",
          "name": "owner",
          "type": "address"
        },
        {
          "internalType": "address",
          "name": "operator",
          "type": "address"
        }
      ],
      "name": "isApprovedForAll",
      "outputs": [
        {
          "internalType": "bool",
          "name": "",
          "type": "bool"
        }
      ],
      "stateMutability": "view",
      "type": "function",
      "constant": true
    },
    {
      "inputs": [],
      "name": "name",
      "outputs": [
        {
          "internalType": "string",
          "name": "",
          "type": "string"
        }
      ],
      "stateMutability": "view",
      "type": "function",
      "constant": true
    },
    {
      "inputs": [
        {
          "internalType": "address",
          "name": "",
          "type": "address"
        }
      ],
      "name": "nonces",
      "outputs": [
        {
          "internalType": "uint256",
          "name": "_value",
          "type": "uint256"
        }
      ],
      "stateMutability": "view",
      "type": "function",
      "constant": true
    },
    {
      "inputs": [],
      "name": "owner",
      "outputs": [
        {
          "internalType": "address",
          "name": "",
          "type": "address"
        }
      ],
      "stateMutability": "view",
      "type": "function",
      "constant": true
    },
    {
      "inputs": [
        {
          "internalType": "uint256",
          "name": "tokenId",
          "type": "uint256"
        }
      ],
      "name": "ownerOf",
      "outputs": [
        {
          "internalType": "address",
          "name": "",
          "type": "address"
        }
      ],
      "stateMutability": "view",
      "type": "function",
      "constant": true
    },
    {
      "inputs": [
        {
          "internalType": "address",
          "name": "dest",
          "type": "address"
        }
      ],
      "name": "payments",
      "outputs": [
        {
          "internalType": "uint256",
          "name": "",
          "type": "uint256"
        }
      ],
      "stateMutability": "view",
      "type": "function",
      "constant": true
    },
    {
      "inputs": [],
      "name": "renounceOwnership",
      "outputs": [],
      "stateMutability": "nonpayable",
      "type": "function"
    },
    {
      "inputs": [
        {
          "internalType": "address",
          "name": "from",
          "type": "address"
        },
        {
          "internalType": "address",
          "name": "to",
          "type": "address"
        },
        {
          "internalType": "uint256",
          "name": "tokenId",
          "type": "uint256"
        }
      ],
      "name": "safeTransferFrom",
      "outputs": [],
      "stateMutability": "nonpayable",
      "type": "function"
    },
    {
      "inputs": [
        {
          "internalType": "address",
          "name": "from",
          "type": "address"
        },
        {
          "internalType": "address",
          "name": "to",
          "type": "address"
        },
        {
          "internalType": "uint256",
          "name": "tokenId",
          "type": "uint256"
        },
        {
          "internalType": "bytes",
          "name": "data",
          "type": "bytes"
        }
      ],
      "name": "safeTransferFrom",
      "outputs": [],
      "stateMutability": "nonpayable",
      "type": "function"
    },
    {
      "inputs": [
        {
          "internalType": "address",
          "name": "operator",
          "type": "address"
        },
        {
          "internalType": "bool",
          "name": "approved",
          "type": "bool"
        }
      ],
      "name": "setApprovalForAll",
      "outputs": [],
      "stateMutability": "nonpayable",
      "type": "function"
    },
    {
      "inputs": [],
      "name": "signOwner",
      "outputs": [
        {
          "internalType": "address",
          "name": "",
          "type": "address"
        }
      ],
      "stateMutability": "view",
      "type": "function",
      "constant": true
    },
    {
      "inputs": [
        {
          "internalType": "bytes4",
          "name": "interfaceId",
          "type": "bytes4"
        }
      ],
      "name": "supportsInterface",
      "outputs": [
        {
          "internalType": "bool",
          "name": "",
          "type": "bool"
        }
      ],
      "stateMutability": "view",
      "type": "function",
      "constant": true
    },
    {
      "inputs": [],
      "name": "symbol",
      "outputs": [
        {
          "internalType": "string",
          "name": "",
          "type": "string"
        }
      ],
      "stateMutability": "view",
      "type": "function",
      "constant": true
    },
    {
      "inputs": [],
      "name": "tokenCount",
      "outputs": [
        {
          "internalType": "uint256",
          "name": "_value",
          "type": "uint256"
        }
      ],
      "stateMutability": "view",
      "type": "function",
      "constant": true
    },
    {
      "inputs": [
        {
          "internalType": "uint256",
          "name": "tokenId",
          "type": "uint256"
        }
      ],
      "name": "tokenURI",
      "outputs": [
        {
          "internalType": "string",
          "name": "",
          "type": "string"
        }
      ],
      "stateMutability": "view",
      "type": "function",
      "constant": true
    },
    {
      "inputs": [
        {
          "internalType": "address",
          "name": "from",
          "type": "address"
        },
        {
          "internalType": "address",
          "name": "to",
          "type": "address"
        },
        {
          "internalType": "uint256",
          "name": "tokenId",
          "type": "uint256"
        }
      ],
      "name": "transferFrom",
      "outputs": [],
      "stateMutability": "nonpayable",
      "type": "function"
    },
    {
      "inputs": [
        {
          "internalType": "address",
          "name": "newOwner",
          "type": "address"
        }
      ],
      "name": "transferOwnership",
      "outputs": [],
      "stateMutability": "nonpayable",
      "type": "function"
    },
    {
      "inputs": [
        {
          "internalType": "address payable",
          "name": "payee",
          "type": "address"
        }
      ],
      "name": "withdrawPayments",
      "outputs": [],
      "stateMutability": "nonpayable",
      "type": "function"
    },
    {
      "inputs": [
        {
          "internalType": "string",
          "name": "externalTokenURI",
          "type": "string"
        },
        {
          "components": [
            {
              "internalType": "uint8",
              "name": "v",
              "type": "uint8"
            },
            {
              "internalType": "bytes32",
              "name": "r",
              "type": "bytes32"
            },
            {
              "internalType": "bytes32",
              "name": "s",
              "type": "bytes32"
            }
          ],
          "internalType": "struct DrawNFT.SignatureKeys",
          "name": "keys",
          "type": "tuple"
        }
      ],
      "name": "safeMint",
      "outputs": [
        {
          "internalType": "uint256",
          "name": "",
          "type": "uint256"
        }
      ],
      "stateMutability": "payable",
      "type": "function",
      "payable": true
    },
    {
      "inputs": [],
      "name": "withdrawMintPayments",
      "outputs": [],
      "stateMutability": "nonpayable",
      "type": "function"
    },
    {
      "inputs": [
        {
          "internalType": "address",
          "name": "newSignOwner",
          "type": "address"
        }
      ],
      "name": "changeSignOwner",
      "outputs": [],
      "stateMutability": "nonpayable",
      "type": "function"
    },
    {
      "inputs": [
        {
          "internalType": "address",
          "name": "addr",
          "type": "address"
        }
      ],
      "name": "readNonce",
      "outputs": [
        {
          "internalType": "uint256",
          "name": "",
          "type": "uint256"
        }
      ],
      "stateMutability": "view",
      "type": "function",
      "constant": true
    }
  ],
  "bytecode": "0x60a0604052600a80546001600160a01b0319167357c5abf82f08dd751645846b21ab14e8f4124aa51790553480156200003757600080fd5b5060405180604001604052806007815260200166111c985dd3919560ca1b8152506040518060400160405280600381526020016244525760e81b8152508160009081620000859190620001e5565b506001620000948282620001e5565b505050604051620000a59062000132565b604051809103906000f080158015620000c2573d6000803e3d6000fd5b506001600160a01b0316608052620000da33620000e0565b620002b1565b600780546001600160a01b038381166001600160a01b0319831681179093556040519116919082907f8be0079c531659141344cd1fd0a4f28419497f9722a3daafe3b4186f6b6457e090600090a35050565b61058c806200251e83390190565b634e487b7160e01b600052604160045260246000fd5b600181811c908216806200016b57607f821691505b6020821081036200018c57634e487b7160e01b600052602260045260246000fd5b50919050565b601f821115620001e057600081815260208120601f850160051c81016020861015620001bb5750805b601f850160051c820191505b81811015620001dc57828155600101620001c7565b5050505b505050565b81516001600160401b0381111562000201576200020162000140565b620002198162000212845462000156565b8462000192565b602080601f831160018114620002515760008415620002385750858301515b600019600386901b1c1916600185901b178555620001dc565b600085815260208120601f198616915b82811015620002825788860151825594840194600190910190840162000261565b5085821015620002a15787850151600019600388901b60f8161c191681555b5050505050600190811b01905550565b60805161224a620002d4600039600081816107ed0152610e54015261224a6000f3fe60806040526004361061019c5760003560e01c806377788757116100ec578063b88d4fde1161008a578063d4558a8711610064578063d4558a8714610485578063e2982c21146104a5578063e985e9c5146104c5578063f2fde38b146104e557600080fd5b8063b88d4fde1461042a578063c002d23d1461044a578063c87b56dd1461046557600080fd5b8063902d55a5116100c6578063902d55a5146103c857806395d89b41146103de5780639f181b5e146103f3578063a22cb4651461040a57600080fd5b8063777887571461035d5780637ecebe001461037d5780638da5cb5b146103aa57600080fd5b806331b3eb94116101595780636352211e116101335780636352211e146102e75780636cef76b11461030757806370a0823114610328578063715018a61461034857600080fd5b806331b3eb941461029257806342842e0e146102b257806362b9c600146102d257600080fd5b806301ffc9a7146101a157806306fdde03146101d6578063081812fc146101f8578063095ea7b3146102305780631b5830821461025257806323b872dd14610272575b600080fd5b3480156101ad57600080fd5b506101c16101bc366004611b47565b610505565b60405190151581526020015b60405180910390f35b3480156101e257600080fd5b506101eb610557565b6040516101cd9190611bb4565b34801561020457600080fd5b50610218610213366004611bc7565b6105e9565b6040516001600160a01b0390911681526020016101cd565b34801561023c57600080fd5b5061025061024b366004611bf5565b610610565b005b34801561025e57600080fd5b5061025061026d366004611c21565b61072a565b34801561027e57600080fd5b5061025061028d366004611c3e565b61079d565b34801561029e57600080fd5b506102506102ad366004611c21565b6107ce565b3480156102be57600080fd5b506102506102cd366004611c3e565b61084c565b3480156102de57600080fd5b50610250610867565b3480156102f357600080fd5b50610218610302366004611bc7565b61089e565b61031a610315366004611d0b565b6108fe565b6040519081526020016101cd565b34801561033457600080fd5b5061031a610343366004611c21565b610c14565b34801561035457600080fd5b50610250610c9a565b34801561036957600080fd5b5061031a610378366004611c21565b610cae565b34801561038957600080fd5b5061031a610398366004611c21565b60096020526000908152604090205481565b3480156103b657600080fd5b506007546001600160a01b0316610218565b3480156103d457600080fd5b5061031a6115b381565b3480156103ea57600080fd5b506101eb610ccc565b3480156103ff57600080fd5b5060085461031a9081565b34801561041657600080fd5b50610250610425366004611d79565b610cdb565b34801561043657600080fd5b50610250610445366004611db7565b610cea565b34801561045657600080fd5b5061031a66f8b0a10e47000081565b34801561047157600080fd5b506101eb610480366004611bc7565b610d22565b34801561049157600080fd5b50600a54610218906001600160a01b031681565b3480156104b157600080fd5b5061031a6104c0366004611c21565b610e32565b3480156104d157600080fd5b506101c16104e0366004611e37565b610ec1565b3480156104f157600080fd5b50610250610500366004611c21565b610eef565b60006001600160e01b031982166380ac58cd60e01b148061053657506001600160e01b03198216635b5e139f60e01b145b8061055157506301ffc9a760e01b6001600160e01b03198316145b92915050565b60606000805461056690611e65565b80601f016020809104026020016040519081016040528092919081815260200182805461059290611e65565b80156105df5780601f106105b4576101008083540402835291602001916105df565b820191906000526020600020905b8154815290600101906020018083116105c257829003601f168201915b5050505050905090565b60006105f482610f65565b506000908152600460205260409020546001600160a01b031690565b600061061b8261089e565b9050806001600160a01b0316836001600160a01b03160361068d5760405162461bcd60e51b815260206004820152602160248201527f4552433732313a20617070726f76616c20746f2063757272656e74206f776e656044820152603960f91b60648201526084015b60405180910390fd5b336001600160a01b03821614806106a957506106a98133610ec1565b61071b5760405162461bcd60e51b815260206004820152603d60248201527f4552433732313a20617070726f76652063616c6c6572206973206e6f7420746f60448201527f6b656e206f776e6572206f7220617070726f76656420666f7220616c6c0000006064820152608401610684565b6107258383610fc4565b505050565b610732611032565b6001600160a01b03811661077b5760405162461bcd60e51b815260206004820152601060248201526f546865207a65726f206164647265737360801b6044820152606401610684565b600a80546001600160a01b0319166001600160a01b0392909216919091179055565b6107a7338261108c565b6107c35760405162461bcd60e51b815260040161068490611e9f565b6107258383836110ea565b6040516351cff8d960e01b81526001600160a01b0382811660048301527f000000000000000000000000000000000000000000000000000000000000000016906351cff8d990602401600060405180830381600087803b15801561083157600080fd5b505af1158015610845573d6000803e3d6000fd5b5050505050565b61072583838360405180602001604052806000815250610cea565b61086f611032565b60405133904780156108fc02916000818181858888f1935050505015801561089b573d6000803e3d6000fd5b50565b6000818152600260205260408120546001600160a01b0316806105515760405162461bcd60e51b8152602060048201526018602482015277115490cdcc8c4e881a5b9d985b1a59081d1bdad95b88125160421b6044820152606401610684565b33600090815260096020526040812054829033600061091c8361125b565b6109278360146112ee565b604051602001610938929190611eec565b604051602081830303815290604052905060008160405160200161095c9190611f1b565b60408051601f1981840301815282825280516020918201208383018352601c84527f19457468657265756d205369676e6564204d6573736167653a0a3332000000008483015291519193506000916109b8918491869101611f37565b60405160208183030381529060405280519060200120905060006001828960000160208101906109e89190611f59565b604080516000815260208181018084529490945260ff90921682820152918b01356060820152908a0135608082015260a0016020604051602081039080840390855afa158015610a3c573d6000803e3d6000fd5b5050604051601f190151600a549092506001600160a01b038084169116149050610a9c5760405162461bcd60e51b8152602060048201526011602482015270496e76616c6964205369676e617475726560781b6044820152606401610684565b6000610aa760085490565b90506115b38110610af15760405162461bcd60e51b81526020600482015260146024820152734578636565647320746f6b656e20737570706c7960601b6044820152606401610684565b66f8b0a10e470000341015610b3e5760405162461bcd60e51b8152602060048201526013602482015272139bdd08195b9bdd59da08115512081cd95b9d606a1b6044820152606401610684565b610b4c600880546001019055565b6000610b5760085490565b9050610b633382611491565b610b6d818e6114ab565b7f695a9e8aa4a54f62feafe2a96f107e287ede90c04f975155faf83eacbb68d27c604051610bdf906020808252602a908201527f5468652066756e6374696f6e20686173206265656e2063616c6c6564207375636040820152696365737366756c6c792160b01b606082015260800190565b60405180910390a1995050336000908152600960205260409020610c069080546001019055565b505050505050505092915050565b60006001600160a01b038216610c7e5760405162461bcd60e51b815260206004820152602960248201527f4552433732313a2061646472657373207a65726f206973206e6f7420612076616044820152683634b21037bbb732b960b91b6064820152608401610684565b506001600160a01b031660009081526003602052604090205490565b610ca2611032565b610cac600061153e565b565b6001600160a01b038116600090815260096020526040812054610551565b60606001805461056690611e65565b610ce6338383611590565b5050565b610cf4338361108c565b610d105760405162461bcd60e51b815260040161068490611e9f565b610d1c8484848461165e565b50505050565b6060610d2d82610f65565b60008281526006602052604081208054610d4690611e65565b80601f0160208091040260200160405190810160405280929190818152602001828054610d7290611e65565b8015610dbf5780601f10610d9457610100808354040283529160200191610dbf565b820191906000526020600020905b815481529060010190602001808311610da257829003601f168201915b505050505090506000610ddd60408051602081019091526000815290565b90508051600003610def575092915050565b815115610e21578082604051602001610e09929190611eec565b60405160208183030381529060405292505050919050565b610e2a84611691565b949350505050565b6040516371d4ed8d60e11b81526001600160a01b0382811660048301526000917f00000000000000000000000000000000000000000000000000000000000000009091169063e3a9db1a90602401602060405180830381865afa158015610e9d573d6000803e3d6000fd5b505050506040513d601f19601f820116820180604052508101906105519190611f7c565b6001600160a01b03918216600090815260056020908152604080832093909416825291909152205460ff1690565b610ef7611032565b6001600160a01b038116610f5c5760405162461bcd60e51b815260206004820152602660248201527f4f776e61626c653a206e6577206f776e657220697320746865207a65726f206160448201526564647265737360d01b6064820152608401610684565b61089b8161153e565b6000818152600260205260409020546001600160a01b031661089b5760405162461bcd60e51b8152602060048201526018602482015277115490cdcc8c4e881a5b9d985b1a59081d1bdad95b88125160421b6044820152606401610684565b600081815260046020526040902080546001600160a01b0319166001600160a01b0384169081179091558190610ff98261089e565b6001600160a01b03167f8c5be1e5ebec7d5bd14f71427d1e84f3dd0314c0f7b2291e5b200ac8c7c3b92560405160405180910390a45050565b6007546001600160a01b03163314610cac5760405162461bcd60e51b815260206004820181905260248201527f4f776e61626c653a2063616c6c6572206973206e6f7420746865206f776e65726044820152606401610684565b6000806110988361089e565b9050806001600160a01b0316846001600160a01b031614806110bf57506110bf8185610ec1565b80610e2a5750836001600160a01b03166110d8846105e9565b6001600160a01b031614949350505050565b826001600160a01b03166110fd8261089e565b6001600160a01b0316146111235760405162461bcd60e51b815260040161068490611f95565b6001600160a01b0382166111855760405162461bcd60e51b8152602060048201526024808201527f4552433732313a207472616e7366657220746f20746865207a65726f206164646044820152637265737360e01b6064820152608401610684565b6111928383836001611704565b826001600160a01b03166111a58261089e565b6001600160a01b0316146111cb5760405162461bcd60e51b815260040161068490611f95565b600081815260046020908152604080832080546001600160a01b03199081169091556001600160a01b0387811680865260038552838620805460001901905590871680865283862080546001019055868652600290945282852080549092168417909155905184937fddf252ad1be2c89b69c2b068fc378daa952ba7f163c4a11628f55a4df523b3ef91a4505050565b606060006112688361178c565b600101905060008167ffffffffffffffff81111561128857611288611c7f565b6040519080825280601f01601f1916602001820160405280156112b2576020820181803683370190505b5090508181016020015b600019016f181899199a1a9b1b9c1cb0b131b232b360811b600a86061a8153600a85049450846112bc57509392505050565b606060006112fd836002611ff0565b611308906002612007565b67ffffffffffffffff81111561132057611320611c7f565b6040519080825280601f01601f19166020018201604052801561134a576020820181803683370190505b509050600360fc1b816000815181106113655761136561201a565b60200101906001600160f81b031916908160001a905350600f60fb1b816001815181106113945761139461201a565b60200101906001600160f81b031916908160001a90535060006113b8846002611ff0565b6113c3906001612007565b90505b600181111561143b576f181899199a1a9b1b9c1cb0b131b232b360811b85600f16601081106113f7576113f761201a565b1a60f81b82828151811061140d5761140d61201a565b60200101906001600160f81b031916908160001a90535060049490941c9361143481612030565b90506113c6565b50831561148a5760405162461bcd60e51b815260206004820181905260248201527f537472696e67733a20686578206c656e67746820696e73756666696369656e746044820152606401610684565b9392505050565b610ce6828260405180602001604052806000815250611864565b6000828152600260205260409020546001600160a01b03166115265760405162461bcd60e51b815260206004820152602e60248201527f45524337323155524953746f726167653a2055524920736574206f66206e6f6e60448201526d32bc34b9ba32b73a103a37b5b2b760911b6064820152608401610684565b60008281526006602052604090206107258282612095565b600780546001600160a01b038381166001600160a01b0319831681179093556040519116919082907f8be0079c531659141344cd1fd0a4f28419497f9722a3daafe3b4186f6b6457e090600090a35050565b816001600160a01b0316836001600160a01b0316036115f15760405162461bcd60e51b815260206004820152601960248201527f4552433732313a20617070726f766520746f2063616c6c6572000000000000006044820152606401610684565b6001600160a01b03838116600081815260056020908152604080832094871680845294825291829020805460ff191686151590811790915591519182527f17307eab39ab6107e8899845ad3d59bd9653f200f220920489ca2b5937696c31910160405180910390a3505050565b6116698484846110ea565b61167584848484611897565b610d1c5760405162461bcd60e51b815260040161068490612155565b606061169c82610f65565b60006116b360408051602081019091526000815290565b905060008151116116d3576040518060200160405280600081525061148a565b806116dd8461125b565b6040516020016116ee929190611eec565b6040516020818303038152906040529392505050565b6001811115610d1c576001600160a01b0384161561174a576001600160a01b038416600090815260036020526040812080548392906117449084906121a7565b90915550505b6001600160a01b03831615610d1c576001600160a01b03831660009081526003602052604081208054839290611781908490612007565b909155505050505050565b60008072184f03e93ff9f4daa797ed6e38ed64bf6a1f0160401b83106117cb5772184f03e93ff9f4daa797ed6e38ed64bf6a1f0160401b830492506040015b6d04ee2d6d415b85acef810000000083106117f7576d04ee2d6d415b85acef8100000000830492506020015b662386f26fc10000831061181557662386f26fc10000830492506010015b6305f5e100831061182d576305f5e100830492506008015b612710831061184157612710830492506004015b60648310611853576064830492506002015b600a83106105515760010192915050565b61186e8383611998565b61187b6000848484611897565b6107255760405162461bcd60e51b815260040161068490612155565b60006001600160a01b0384163b1561198d57604051630a85bd0160e11b81526001600160a01b0385169063150b7a02906118db9033908990889088906004016121ba565b6020604051808303816000875af1925050508015611916575060408051601f3d908101601f19168201909252611913918101906121f7565b60015b611973573d808015611944576040519150601f19603f3d011682016040523d82523d6000602084013e611949565b606091505b50805160000361196b5760405162461bcd60e51b815260040161068490612155565b805181602001fd5b6001600160e01b031916630a85bd0160e11b149050610e2a565b506001949350505050565b6001600160a01b0382166119ee5760405162461bcd60e51b815260206004820181905260248201527f4552433732313a206d696e7420746f20746865207a65726f20616464726573736044820152606401610684565b6000818152600260205260409020546001600160a01b031615611a535760405162461bcd60e51b815260206004820152601c60248201527f4552433732313a20746f6b656e20616c7265616479206d696e746564000000006044820152606401610684565b611a61600083836001611704565b6000818152600260205260409020546001600160a01b031615611ac65760405162461bcd60e51b815260206004820152601c60248201527f4552433732313a20746f6b656e20616c7265616479206d696e746564000000006044820152606401610684565b6001600160a01b038216600081815260036020908152604080832080546001019055848352600290915280822080546001600160a01b0319168417905551839291907fddf252ad1be2c89b69c2b068fc378daa952ba7f163c4a11628f55a4df523b3ef908290a45050565b6001600160e01b03198116811461089b57600080fd5b600060208284031215611b5957600080fd5b813561148a81611b31565b60005b83811015611b7f578181015183820152602001611b67565b50506000910152565b60008151808452611ba0816020860160208601611b64565b601f01601f19169290920160200192915050565b60208152600061148a6020830184611b88565b600060208284031215611bd957600080fd5b5035919050565b6001600160a01b038116811461089b57600080fd5b60008060408385031215611c0857600080fd5b8235611c1381611be0565b946020939093013593505050565b600060208284031215611c3357600080fd5b813561148a81611be0565b600080600060608486031215611c5357600080fd5b8335611c5e81611be0565b92506020840135611c6e81611be0565b929592945050506040919091013590565b634e487b7160e01b600052604160045260246000fd5b600067ffffffffffffffff80841115611cb057611cb0611c7f565b604051601f8501601f19908116603f01168101908282118183101715611cd857611cd8611c7f565b81604052809350858152868686011115611cf157600080fd5b858560208301376000602087830101525050509392505050565b6000808284036080811215611d1f57600080fd5b833567ffffffffffffffff811115611d3657600080fd5b8401601f81018613611d4757600080fd5b611d5686823560208401611c95565b9350506060601f1982011215611d6b57600080fd5b506020830190509250929050565b60008060408385031215611d8c57600080fd5b8235611d9781611be0565b915060208301358015158114611dac57600080fd5b809150509250929050565b60008060008060808587031215611dcd57600080fd5b8435611dd881611be0565b93506020850135611de881611be0565b925060408501359150606085013567ffffffffffffffff811115611e0b57600080fd5b8501601f81018713611e1c57600080fd5b611e2b87823560208401611c95565b91505092959194509250565b60008060408385031215611e4a57600080fd5b8235611e5581611be0565b91506020830135611dac81611be0565b600181811c90821680611e7957607f821691505b602082108103611e9957634e487b7160e01b600052602260045260246000fd5b50919050565b6020808252602d908201527f4552433732313a2063616c6c6572206973206e6f7420746f6b656e206f776e6560408201526c1c881bdc88185c1c1c9bdd9959609a1b606082015260800190565b60008351611efe818460208801611b64565b835190830190611f12818360208801611b64565b01949350505050565b60008251611f2d818460208701611b64565b9190910192915050565b60008351611f49818460208801611b64565b9190910191825250602001919050565b600060208284031215611f6b57600080fd5b813560ff8116811461148a57600080fd5b600060208284031215611f8e57600080fd5b5051919050565b60208082526025908201527f4552433732313a207472616e736665722066726f6d20696e636f72726563742060408201526437bbb732b960d91b606082015260800190565b634e487b7160e01b600052601160045260246000fd5b808202811582820484141761055157610551611fda565b8082018082111561055157610551611fda565b634e487b7160e01b600052603260045260246000fd5b60008161203f5761203f611fda565b506000190190565b601f82111561072557600081815260208120601f850160051c8101602086101561206e5750805b601f850160051c820191505b8181101561208d5782815560010161207a565b505050505050565b815167ffffffffffffffff8111156120af576120af611c7f565b6120c3816120bd8454611e65565b84612047565b602080601f8311600181146120f857600084156120e05750858301515b600019600386901b1c1916600185901b17855561208d565b600085815260208120601f198616915b8281101561212757888601518255948401946001909101908401612108565b50858210156121455787850151600019600388901b60f8161c191681555b5050505050600190811b01905550565b60208082526032908201527f4552433732313a207472616e7366657220746f206e6f6e20455243373231526560408201527131b2b4bb32b91034b6b83632b6b2b73a32b960711b606082015260800190565b8181038181111561055157610551611fda565b6001600160a01b03858116825284166020820152604081018390526080606082018190526000906121ed90830184611b88565b9695505050505050565b60006020828403121561220957600080fd5b815161148a81611b3156fea2646970667358221220d8c3941701bf64e724e1840c36137e32bc37177abec976dd688a70a63678b2c164736f6c63430008110033608060405234801561001057600080fd5b5061001a3361001f565b61006f565b600080546001600160a01b038381166001600160a01b0319831681178455604051919092169283917f8be0079c531659141344cd1fd0a4f28419497f9722a3daafe3b4186f6b6457e09190a35050565b61050e8061007e6000396000f3fe6080604052600436106100555760003560e01c806351cff8d91461005a578063715018a61461007c5780638da5cb5b14610091578063e3a9db1a146100be578063f2fde38b14610102578063f340fa0114610122575b600080fd5b34801561006657600080fd5b5061007a61007536600461048d565b610135565b005b34801561008857600080fd5b5061007a6101ac565b34801561009d57600080fd5b506000546040516001600160a01b0390911681526020015b60405180910390f35b3480156100ca57600080fd5b506100f46100d936600461048d565b6001600160a01b031660009081526001602052604090205490565b6040519081526020016100b5565b34801561010e57600080fd5b5061007a61011d36600461048d565b6101c0565b61007a61013036600461048d565b61023e565b61013d6102b0565b6001600160a01b0381166000818152600160205260408120805491905590610165908261030a565b816001600160a01b03167f7084f5476618d8e60b11ef0d7d3f06914655adb8793e28ff7f018d4c76d505d5826040516101a091815260200190565b60405180910390a25050565b6101b46102b0565b6101be6000610428565b565b6101c86102b0565b6001600160a01b0381166102325760405162461bcd60e51b815260206004820152602660248201527f4f776e61626c653a206e6577206f776e657220697320746865207a65726f206160448201526564647265737360d01b60648201526084015b60405180910390fd5b61023b81610428565b50565b6102466102b0565b6001600160a01b0381166000908152600160205260408120805434928392916102709084906104b1565b90915550506040518181526001600160a01b038316907f2da466a7b24304f47e87fa2e1e5a81b9831ce54fec19055ce277ca2f39ba42c4906020016101a0565b6000546001600160a01b031633146101be5760405162461bcd60e51b815260206004820181905260248201527f4f776e61626c653a2063616c6c6572206973206e6f7420746865206f776e65726044820152606401610229565b8047101561035a5760405162461bcd60e51b815260206004820152601d60248201527f416464726573733a20696e73756666696369656e742062616c616e63650000006044820152606401610229565b6000826001600160a01b03168260405160006040518083038185875af1925050503d80600081146103a7576040519150601f19603f3d011682016040523d82523d6000602084013e6103ac565b606091505b50509050806104235760405162461bcd60e51b815260206004820152603a60248201527f416464726573733a20756e61626c6520746f2073656e642076616c75652c207260448201527f6563697069656e74206d617920686176652072657665727465640000000000006064820152608401610229565b505050565b600080546001600160a01b038381166001600160a01b0319831681178455604051919092169283917f8be0079c531659141344cd1fd0a4f28419497f9722a3daafe3b4186f6b6457e09190a35050565b6001600160a01b038116811461023b57600080fd5b60006020828403121561049f57600080fd5b81356104aa81610478565b9392505050565b808201808211156104d257634e487b7160e01b600052601160045260246000fd5b9291505056fea2646970667358221220149cb0c5849cd1afdca855219c22222dc904c54635c1f3832c93b62ffb0b7f4c64736f6c63430008110033",
  "immutableReferences": {
    "119": [
      {
        "length": 32,
        "start": 2029
      },
      {
        "length": 32,
        "start": 3668
      }
    ]
  },
  "source": "// SPDX-License-Identifier: MIT\n\npragma solidity ^0.8.16.0;\n\nimport \"@openzeppelin/contracts/token/ERC721/extensions/ERC721URIStorage.sol\";\nimport \"@openzeppelin/contracts/utils/Counters.sol\";\nimport \"@openzeppelin/contracts/security/PullPayment.sol\";\nimport \"@openzeppelin/contracts/access/Ownable.sol\";\nimport \"@openzeppelin/contracts/utils/Strings.sol\";\n\ncontract DrawNFT is ERC721URIStorage, PullPayment, Ownable {\n    using Counters for Counters.Counter;\n    Counters.Counter public tokenCount;\n\n    mapping (address => Counters.Counter) public nonces;\n\n    uint256 public constant TOTAL_SUPPLY = 5555;\n    uint256 public constant MINT_PRICE = 0.07 ether;\n\n    address public signOwner = 0x57c5abf82F08dd751645846b21ab14e8f4124Aa5;\n\n    event MyEvent(string message);\n\n    struct SignatureKeys { \n        uint8 v;\n        bytes32 r;\n        bytes32 s;\n    }\n\n    constructor() ERC721(\"DrawNFT\", \"DRW\") {}\n\n    modifier verifyMessage(SignatureKeys calldata signatureKeys) {\n        uint256 senderNonce = nonces[msg.sender].current();\n        uint256 senderAddress = uint256(uint160(msg.sender));\n        string memory message = string.concat(Strings.toString(senderNonce), Strings.toHexString(senderAddress, 20));\n        bytes32 hashedMessage = keccak256(abi.encodePacked(message));\n\n        bytes memory prefix = \"\\x19Ethereum Signed Message:\\n32\";\n        bytes32 prefixedHashMessage = keccak256(abi.encodePacked(prefix, hashedMessage));\n\n        address signer = ecrecover(prefixedHashMessage, signatureKeys.v, signatureKeys.r, signatureKeys.s);\n        require(signer == signOwner, \"Invalid Signature\");\n        _;\n        nonces[msg.sender].increment();\n    }\n\n    function safeMint(string memory externalTokenURI, SignatureKeys calldata keys) external payable verifyMessage(keys) returns (uint256) {\n        uint256 tokenId = tokenCount.current();\n        require(tokenId < TOTAL_SUPPLY, \"Exceeds token supply\");\n        require(msg.value >= MINT_PRICE, \"Not enough ETH sent\");\n\n        tokenCount.increment();\n        uint256 newTokenId = tokenCount.current();\n        _safeMint(msg.sender, newTokenId);\n        _setTokenURI(newTokenId, externalTokenURI);\n        emit MyEvent(\"The function has been called successfully!\");\n        return newTokenId;\n    }\n\n    function withdrawMintPayments() external onlyOwner virtual {\n        payable(msg.sender).transfer(address(this).balance);\n    }\n\n    function changeSignOwner(address newSignOwner) external onlyOwner {\n        require(newSignOwner != address(0), \"The zero address\");\n\n        signOwner = newSignOwner;\n    }\n\n    function readNonce(address addr) external view returns (uint256) {\n        return nonces[addr].current();\n    }   \n}\n",
  "sourcePath": "/Users/sadikekinozbay/Documents/DrawNFT.io/contracts/DrawNFT.sol",
  "compiler": {
    "name": "solc",
    "version": "0.8.17+commit.8df45f5f.Emscripten.clang"
  },
  "schemaVersion": "3.4.11",
  "updatedAt": "2022-12-10T12:13:50.233Z",
  "networkType": "ethereum",
  "devdoc": {
    "kind": "dev",
    "methods": {
      "approve(address,uint256)": {
        "details": "See {IERC721-approve}."
      },
      "balanceOf(address)": {
        "details": "See {IERC721-balanceOf}."
      },
      "getApproved(uint256)": {
        "details": "See {IERC721-getApproved}."
      },
      "isApprovedForAll(address,address)": {
        "details": "See {IERC721-isApprovedForAll}."
      },
      "name()": {
        "details": "See {IERC721Metadata-name}."
      },
      "owner()": {
        "details": "Returns the address of the current owner."
      },
      "ownerOf(uint256)": {
        "details": "See {IERC721-ownerOf}."
      },
      "payments(address)": {
        "details": "Returns the payments owed to an address.",
        "params": {
          "dest": "The creditor's address."
        }
      },
      "renounceOwnership()": {
        "details": "Leaves the contract without owner. It will not be possible to call `onlyOwner` functions anymore. Can only be called by the current owner. NOTE: Renouncing ownership will leave the contract without an owner, thereby removing any functionality that is only available to the owner."
      },
      "safeTransferFrom(address,address,uint256)": {
        "details": "See {IERC721-safeTransferFrom}."
      },
      "safeTransferFrom(address,address,uint256,bytes)": {
        "details": "See {IERC721-safeTransferFrom}."
      },
      "setApprovalForAll(address,bool)": {
        "details": "See {IERC721-setApprovalForAll}."
      },
      "supportsInterface(bytes4)": {
        "details": "See {IERC165-supportsInterface}."
      },
      "symbol()": {
        "details": "See {IERC721Metadata-symbol}."
      },
      "tokenURI(uint256)": {
        "details": "See {IERC721Metadata-tokenURI}."
      },
      "transferFrom(address,address,uint256)": {
        "details": "See {IERC721-transferFrom}."
      },
      "transferOwnership(address)": {
        "details": "Transfers ownership of the contract to a new account (`newOwner`). Can only be called by the current owner."
      },
      "withdrawPayments(address)": {
        "details": "Withdraw accumulated payments, forwarding all gas to the recipient. Note that _any_ account can call this function, not just the `payee`. This means that contracts unaware of the `PullPayment` protocol can still receive funds this way, by having a separate account call {withdrawPayments}. WARNING: Forwarding all gas opens the door to reentrancy vulnerabilities. Make sure you trust the recipient, or are either following the checks-effects-interactions pattern or using {ReentrancyGuard}.",
        "params": {
          "payee": "Whose payments will be withdrawn. Causes the `escrow` to emit a {Withdrawn} event."
        }
      }
    },
    "version": 1
  },
  "userdoc": {
    "kind": "user",
    "methods": {},
    "version": 1
  }
}