{
  "_format": "hh-sol-artifact-1",
  "contractName": "DrawNFT",
  "sourceName": "contracts/DrawNFT.sol",
  "abi": [
    {
      "inputs": [],
      "stateMutability": "nonpayable",
      "type": "constructor"
    },
    {
      "anonymous": false,
      "inputs": [
        {
          "indexed": true,
          "internalType": "address",
          "name": "owner",
          "type": "address"
        },
        {
          "indexed": true,
          "internalType": "address",
          "name": "approved",
          "type": "address"
        },
        {
          "indexed": true,
          "internalType": "uint256",
          "name": "tokenId",
          "type": "uint256"
        }
      ],
      "name": "Approval",
      "type": "event"
    },
    {
      "anonymous": false,
      "inputs": [
        {
          "indexed": true,
          "internalType": "address",
          "name": "owner",
          "type": "address"
        },
        {
          "indexed": true,
          "internalType": "address",
          "name": "operator",
          "type": "address"
        },
        {
          "indexed": false,
          "internalType": "bool",
          "name": "approved",
          "type": "bool"
        }
      ],
      "name": "ApprovalForAll",
      "type": "event"
    },
    {
      "anonymous": false,
      "inputs": [
        {
          "indexed": true,
          "internalType": "address",
          "name": "previousOwner",
          "type": "address"
        },
        {
          "indexed": true,
          "internalType": "address",
          "name": "newOwner",
          "type": "address"
        }
      ],
      "name": "OwnershipTransferred",
      "type": "event"
    },
    {
      "anonymous": false,
      "inputs": [
        {
          "indexed": true,
          "internalType": "address",
          "name": "from",
          "type": "address"
        },
        {
          "indexed": true,
          "internalType": "address",
          "name": "to",
          "type": "address"
        },
        {
          "indexed": true,
          "internalType": "uint256",
          "name": "tokenId",
          "type": "uint256"
        }
      ],
      "name": "Transfer",
      "type": "event"
    },
    {
      "inputs": [
        {
          "internalType": "address",
          "name": "to",
          "type": "address"
        },
        {
          "internalType": "uint256",
          "name": "tokenId",
          "type": "uint256"
        }
      ],
      "name": "approve",
      "outputs": [],
      "stateMutability": "nonpayable",
      "type": "function"
    },
    {
      "inputs": [
        {
          "internalType": "address",
          "name": "owner",
          "type": "address"
        }
      ],
      "name": "balanceOf",
      "outputs": [
        {
          "internalType": "uint256",
          "name": "",
          "type": "uint256"
        }
      ],
      "stateMutability": "view",
      "type": "function"
    },
    {
      "inputs": [
        {
          "internalType": "uint256",
          "name": "tokenId",
          "type": "uint256"
        }
      ],
      "name": "getApproved",
      "outputs": [
        {
          "internalType": "address",
          "name": "",
          "type": "address"
        }
      ],
      "stateMutability": "view",
      "type": "function"
    },
    {
      "inputs": [
        {
          "internalType": "address",
          "name": "owner",
          "type": "address"
        },
        {
          "internalType": "address",
          "name": "operator",
          "type": "address"
        }
      ],
      "name": "isApprovedForAll",
      "outputs": [
        {
          "internalType": "bool",
          "name": "",
          "type": "bool"
        }
      ],
      "stateMutability": "view",
      "type": "function"
    },
    {
      "inputs": [],
      "name": "name",
      "outputs": [
        {
          "internalType": "string",
          "name": "",
          "type": "string"
        }
      ],
      "stateMutability": "view",
      "type": "function"
    },
    {
      "inputs": [],
      "name": "owner",
      "outputs": [
        {
          "internalType": "address",
          "name": "",
          "type": "address"
        }
      ],
      "stateMutability": "view",
      "type": "function"
    },
    {
      "inputs": [
        {
          "internalType": "uint256",
          "name": "tokenId",
          "type": "uint256"
        }
      ],
      "name": "ownerOf",
      "outputs": [
        {
          "internalType": "address",
          "name": "",
          "type": "address"
        }
      ],
      "stateMutability": "view",
      "type": "function"
    },
    {
      "inputs": [
        {
          "internalType": "address",
          "name": "addr",
          "type": "address"
        }
      ],
      "name": "readNonce",
      "outputs": [
        {
          "internalType": "uint256",
          "name": "",
          "type": "uint256"
        }
      ],
      "stateMutability": "view",
      "type": "function"
    },
    {
      "inputs": [],
      "name": "renounceOwnership",
      "outputs": [],
      "stateMutability": "nonpayable",
      "type": "function"
    },
    {
      "inputs": [
        {
          "internalType": "string",
          "name": "externalTokenURI",
          "type": "string"
        },
        {
          "components": [
            {
              "internalType": "uint8",
              "name": "v",
              "type": "uint8"
            },
            {
              "internalType": "bytes32",
              "name": "r",
              "type": "bytes32"
            },
            {
              "internalType": "bytes32",
              "name": "s",
              "type": "bytes32"
            }
          ],
          "internalType": "struct DrawNFT.SignatureKeys",
          "name": "keys",
          "type": "tuple"
        }
      ],
      "name": "safeMint",
      "outputs": [
        {
          "internalType": "uint256",
          "name": "",
          "type": "uint256"
        }
      ],
      "stateMutability": "payable",
      "type": "function"
    },
    {
      "inputs": [
        {
          "internalType": "address",
          "name": "from",
          "type": "address"
        },
        {
          "internalType": "address",
          "name": "to",
          "type": "address"
        },
        {
          "internalType": "uint256",
          "name": "tokenId",
          "type": "uint256"
        }
      ],
      "name": "safeTransferFrom",
      "outputs": [],
      "stateMutability": "nonpayable",
      "type": "function"
    },
    {
      "inputs": [
        {
          "internalType": "address",
          "name": "from",
          "type": "address"
        },
        {
          "internalType": "address",
          "name": "to",
          "type": "address"
        },
        {
          "internalType": "uint256",
          "name": "tokenId",
          "type": "uint256"
        },
        {
          "internalType": "bytes",
          "name": "data",
          "type": "bytes"
        }
      ],
      "name": "safeTransferFrom",
      "outputs": [],
      "stateMutability": "nonpayable",
      "type": "function"
    },
    {
      "inputs": [
        {
          "internalType": "address",
          "name": "operator",
          "type": "address"
        },
        {
          "internalType": "bool",
          "name": "approved",
          "type": "bool"
        }
      ],
      "name": "setApprovalForAll",
      "outputs": [],
      "stateMutability": "nonpayable",
      "type": "function"
    },
    {
      "inputs": [
        {
          "internalType": "bytes4",
          "name": "interfaceId",
          "type": "bytes4"
        }
      ],
      "name": "supportsInterface",
      "outputs": [
        {
          "internalType": "bool",
          "name": "",
          "type": "bool"
        }
      ],
      "stateMutability": "view",
      "type": "function"
    },
    {
      "inputs": [],
      "name": "symbol",
      "outputs": [
        {
          "internalType": "string",
          "name": "",
          "type": "string"
        }
      ],
      "stateMutability": "view",
      "type": "function"
    },
    {
      "inputs": [
        {
          "internalType": "uint256",
          "name": "tokenId",
          "type": "uint256"
        }
      ],
      "name": "tokenURI",
      "outputs": [
        {
          "internalType": "string",
          "name": "",
          "type": "string"
        }
      ],
      "stateMutability": "view",
      "type": "function"
    },
    {
      "inputs": [
        {
          "internalType": "address",
          "name": "from",
          "type": "address"
        },
        {
          "internalType": "address",
          "name": "to",
          "type": "address"
        },
        {
          "internalType": "uint256",
          "name": "tokenId",
          "type": "uint256"
        }
      ],
      "name": "transferFrom",
      "outputs": [],
      "stateMutability": "nonpayable",
      "type": "function"
    },
    {
      "inputs": [
        {
          "internalType": "address",
          "name": "newOwner",
          "type": "address"
        }
      ],
      "name": "transferOwnership",
      "outputs": [],
      "stateMutability": "nonpayable",
      "type": "function"
    },
    {
      "inputs": [],
      "name": "withdrawMintPayments",
      "outputs": [],
      "stateMutability": "nonpayable",
      "type": "function"
    }
  ],
  "bytecode": "0x60806040523480156200001157600080fd5b506040518060400160405280600781526020017f447261774e4654000000000000000000000000000000000000000000000000008152506040518060400160405280600381526020017f445257000000000000000000000000000000000000000000000000000000000081525081600090816200008f919062000412565b508060019081620000a1919062000412565b505050620000c4620000b8620000ca60201b60201c565b620000d260201b60201c565b620004f9565b600033905090565b6000600760009054906101000a900473ffffffffffffffffffffffffffffffffffffffff16905081600760006101000a81548173ffffffffffffffffffffffffffffffffffffffff021916908373ffffffffffffffffffffffffffffffffffffffff1602179055508173ffffffffffffffffffffffffffffffffffffffff168173ffffffffffffffffffffffffffffffffffffffff167f8be0079c531659141344cd1fd0a4f28419497f9722a3daafe3b4186f6b6457e060405160405180910390a35050565b600081519050919050565b7f4e487b7100000000000000000000000000000000000000000000000000000000600052604160045260246000fd5b7f4e487b7100000000000000000000000000000000000000000000000000000000600052602260045260246000fd5b600060028204905060018216806200021a57607f821691505b60208210810362000230576200022f620001d2565b5b50919050565b60008190508160005260206000209050919050565b60006020601f8301049050919050565b600082821b905092915050565b6000600883026200029a7fffffffffffffffffffffffffffffffffffffffffffffffffffffffffffffffff826200025b565b620002a686836200025b565b95508019841693508086168417925050509392505050565b6000819050919050565b6000819050919050565b6000620002f3620002ed620002e784620002be565b620002c8565b620002be565b9050919050565b6000819050919050565b6200030f83620002d2565b620003276200031e82620002fa565b84845462000268565b825550505050565b600090565b6200033e6200032f565b6200034b81848462000304565b505050565b5b8181101562000373576200036760008262000334565b60018101905062000351565b5050565b601f821115620003c2576200038c8162000236565b62000397846200024b565b81016020851015620003a7578190505b620003bf620003b6856200024b565b83018262000350565b50505b505050565b600082821c905092915050565b6000620003e760001984600802620003c7565b1980831691505092915050565b6000620004028383620003d4565b9150826002028217905092915050565b6200041d8262000198565b67ffffffffffffffff811115620004395762000438620001a3565b5b62000445825462000201565b6200045282828562000377565b600060209050601f8311600181146200048a576000841562000475578287015190505b620004818582620003f4565b865550620004f1565b601f1984166200049a8662000236565b60005b82811015620004c4578489015182556001820191506020850194506020810190506200049d565b86831015620004e45784890151620004e0601f891682620003d4565b8355505b6001600288020188555050505b505050505050565b613b7380620005096000396000f3fe6080604052600436106101145760003560e01c806370a08231116100a0578063a22cb46511610064578063a22cb465146103a4578063b88d4fde146103cd578063c87b56dd146103f6578063e985e9c514610433578063f2fde38b1461047057610114565b806370a08231146102bd578063715018a6146102fa57806377788757146103115780638da5cb5b1461034e57806395d89b411461037957610114565b806323b872dd116100e757806323b872dd146101e757806342842e0e1461021057806362b9c600146102395780636352211e146102505780636cef76b11461028d57610114565b806301ffc9a71461011957806306fdde0314610156578063081812fc14610181578063095ea7b3146101be575b600080fd5b34801561012557600080fd5b50610140600480360381019061013b9190612495565b610499565b60405161014d91906124dd565b60405180910390f35b34801561016257600080fd5b5061016b61057b565b6040516101789190612588565b60405180910390f35b34801561018d57600080fd5b506101a860048036038101906101a391906125e0565b61060d565b6040516101b5919061264e565b60405180910390f35b3480156101ca57600080fd5b506101e560048036038101906101e09190612695565b610653565b005b3480156101f357600080fd5b5061020e600480360381019061020991906126d5565b61076a565b005b34801561021c57600080fd5b50610237600480360381019061023291906126d5565b6107ca565b005b34801561024557600080fd5b5061024e6107ea565b005b34801561025c57600080fd5b50610277600480360381019061027291906125e0565b61083b565b604051610284919061264e565b60405180910390f35b6102a760048036038101906102a291906127b1565b6108c1565b6040516102b49190612820565b60405180910390f35b3480156102c957600080fd5b506102e460048036038101906102df919061283b565b610c4a565b6040516102f19190612820565b60405180910390f35b34801561030657600080fd5b5061030f610d01565b005b34801561031d57600080fd5b506103386004803603810190610333919061283b565b610d15565b6040516103459190612820565b60405180910390f35b34801561035a57600080fd5b50610363610d65565b604051610370919061264e565b60405180910390f35b34801561038557600080fd5b5061038e610d8f565b60405161039b9190612588565b60405180910390f35b3480156103b057600080fd5b506103cb60048036038101906103c69190612894565b610e21565b005b3480156103d957600080fd5b506103f460048036038101906103ef9190612a04565b610e37565b005b34801561040257600080fd5b5061041d600480360381019061041891906125e0565b610e99565b60405161042a9190612588565b60405180910390f35b34801561043f57600080fd5b5061045a60048036038101906104559190612a87565b610fab565b60405161046791906124dd565b60405180910390f35b34801561047c57600080fd5b506104976004803603810190610492919061283b565b61103f565b005b60007f80ac58cd000000000000000000000000000000000000000000000000000000007bffffffffffffffffffffffffffffffffffffffffffffffffffffffff1916827bffffffffffffffffffffffffffffffffffffffffffffffffffffffff1916148061056457507f5b5e139f000000000000000000000000000000000000000000000000000000007bffffffffffffffffffffffffffffffffffffffffffffffffffffffff1916827bffffffffffffffffffffffffffffffffffffffffffffffffffffffff1916145b806105745750610573826110c2565b5b9050919050565b60606000805461058a90612af6565b80601f01602080910402602001604051908101604052809291908181526020018280546105b690612af6565b80156106035780601f106105d857610100808354040283529160200191610603565b820191906000526020600020905b8154815290600101906020018083116105e657829003601f168201915b5050505050905090565b60006106188261112c565b6004600083815260200190815260200160002060009054906101000a900473ffffffffffffffffffffffffffffffffffffffff169050919050565b600061065e8261083b565b90508073ffffffffffffffffffffffffffffffffffffffff168373ffffffffffffffffffffffffffffffffffffffff16036106ce576040517f08c379a00000000000000000000000000000000000000000000000000000000081526004016106c590612b99565b60405180910390fd5b8073ffffffffffffffffffffffffffffffffffffffff166106ed611177565b73ffffffffffffffffffffffffffffffffffffffff16148061071c575061071b81610716611177565b610fab565b5b61075b576040517f08c379a000000000000000000000000000000000000000000000000000000000815260040161075290612c2b565b60405180910390fd5b610765838361117f565b505050565b61077b610775611177565b82611238565b6107ba576040517f08c379a00000000000000000000000000000000000000000000000000000000081526004016107b190612cbd565b60405180910390fd5b6107c58383836112cd565b505050565b6107e583838360405180602001604052806000815250610e37565b505050565b6107f26115c6565b3373ffffffffffffffffffffffffffffffffffffffff166108fc479081150290604051600060405180830381858888f19350505050158015610838573d6000803e3d6000fd5b50565b60008061084783611644565b9050600073ffffffffffffffffffffffffffffffffffffffff168173ffffffffffffffffffffffffffffffffffffffff16036108b8576040517f08c379a00000000000000000000000000000000000000000000000000000000081526004016108af90612d29565b60405180910390fd5b80915050919050565b600081600061090d600960003373ffffffffffffffffffffffffffffffffffffffff1673ffffffffffffffffffffffffffffffffffffffff168152602001908152602001600020611681565b905060003373ffffffffffffffffffffffffffffffffffffffff16905060006109358361168f565b61094083601461175d565b604051602001610951929190612d85565b60405160208183030381529060405290506000816040516020016109759190612da9565b60405160208183030381529060405280519060200120905060006040518060400160405280601c81526020017f19457468657265756d205369676e6564204d6573736167653a0a3332000000008152509050600081836040516020016109dc929190612e32565b6040516020818303038152906040528051906020012090506000600182896000016020810190610a0c9190612e93565b8a602001358b6040013560405160008152602001604052604051610a339493929190612ede565b6020604051602081039080840390855afa158015610a55573d6000803e3d6000fd5b5050506020604051035190507308760dfe8886e164e7d7116c367cc54ddb7364ea73ffffffffffffffffffffffffffffffffffffffff168173ffffffffffffffffffffffffffffffffffffffff1614610ae3576040517f08c379a0000000000000000000000000000000000000000000000000000000008152600401610ada90612f95565b60405180910390fd5b6000610aef6008611681565b90506115b38110610b35576040517f08c379a0000000000000000000000000000000000000000000000000000000008152600401610b2c90613027565b60405180910390fd5b668e1bc9bf040000341015610b7f576040517f08c379a0000000000000000000000000000000000000000000000000000000008152600401610b76906130df565b60405180910390fd5b610b896008611999565b6000610b956008611681565b9050610ba133826119af565b610bef818f8f8080601f016020809104026020016040519081016040528093929190818152602001838380828437600081840152601f19601f820116905080830192505050505050506119cd565b809a505050610c3b600960003373ffffffffffffffffffffffffffffffffffffffff1673ffffffffffffffffffffffffffffffffffffffff168152602001908152602001600020611999565b50505050505050509392505050565b60008073ffffffffffffffffffffffffffffffffffffffff168273ffffffffffffffffffffffffffffffffffffffff1603610cba576040517f08c379a0000000000000000000000000000000000000000000000000000000008152600401610cb190613171565b60405180910390fd5b600360008373ffffffffffffffffffffffffffffffffffffffff1673ffffffffffffffffffffffffffffffffffffffff168152602001908152602001600020549050919050565b610d096115c6565b610d136000611a3a565b565b6000610d5e600960008473ffffffffffffffffffffffffffffffffffffffff1673ffffffffffffffffffffffffffffffffffffffff168152602001908152602001600020611681565b9050919050565b6000600760009054906101000a900473ffffffffffffffffffffffffffffffffffffffff16905090565b606060018054610d9e90612af6565b80601f0160208091040260200160405190810160405280929190818152602001828054610dca90612af6565b8015610e175780601f10610dec57610100808354040283529160200191610e17565b820191906000526020600020905b815481529060010190602001808311610dfa57829003601f168201915b5050505050905090565b610e33610e2c611177565b8383611b00565b5050565b610e48610e42611177565b83611238565b610e87576040517f08c379a0000000000000000000000000000000000000000000000000000000008152600401610e7e90612cbd565b60405180910390fd5b610e9384848484611c6c565b50505050565b6060610ea48261112c565b6000600660008481526020019081526020016000208054610ec490612af6565b80601f0160208091040260200160405190810160405280929190818152602001828054610ef090612af6565b8015610f3d5780601f10610f1257610100808354040283529160200191610f3d565b820191906000526020600020905b815481529060010190602001808311610f2057829003601f168201915b505050505090506000610f4e611cc8565b90506000815103610f63578192505050610fa6565b600082511115610f98578082604051602001610f80929190612d85565b60405160208183030381529060405292505050610fa6565b610fa184611cdf565b925050505b919050565b6000600560008473ffffffffffffffffffffffffffffffffffffffff1673ffffffffffffffffffffffffffffffffffffffff16815260200190815260200160002060008373ffffffffffffffffffffffffffffffffffffffff1673ffffffffffffffffffffffffffffffffffffffff16815260200190815260200160002060009054906101000a900460ff16905092915050565b6110476115c6565b600073ffffffffffffffffffffffffffffffffffffffff168173ffffffffffffffffffffffffffffffffffffffff16036110b6576040517f08c379a00000000000000000000000000000000000000000000000000000000081526004016110ad90613203565b60405180910390fd5b6110bf81611a3a565b50565b60007f01ffc9a7000000000000000000000000000000000000000000000000000000007bffffffffffffffffffffffffffffffffffffffffffffffffffffffff1916827bffffffffffffffffffffffffffffffffffffffffffffffffffffffff1916149050919050565b61113581611d47565b611174576040517f08c379a000000000000000000000000000000000000000000000000000000000815260040161116b90612d29565b60405180910390fd5b50565b600033905090565b816004600083815260200190815260200160002060006101000a81548173ffffffffffffffffffffffffffffffffffffffff021916908373ffffffffffffffffffffffffffffffffffffffff160217905550808273ffffffffffffffffffffffffffffffffffffffff166111f28361083b565b73ffffffffffffffffffffffffffffffffffffffff167f8c5be1e5ebec7d5bd14f71427d1e84f3dd0314c0f7b2291e5b200ac8c7c3b92560405160405180910390a45050565b6000806112448361083b565b90508073ffffffffffffffffffffffffffffffffffffffff168473ffffffffffffffffffffffffffffffffffffffff16148061128657506112858185610fab565b5b806112c457508373ffffffffffffffffffffffffffffffffffffffff166112ac8461060d565b73ffffffffffffffffffffffffffffffffffffffff16145b91505092915050565b8273ffffffffffffffffffffffffffffffffffffffff166112ed8261083b565b73ffffffffffffffffffffffffffffffffffffffff1614611343576040517f08c379a000000000000000000000000000000000000000000000000000000000815260040161133a90613295565b60405180910390fd5b600073ffffffffffffffffffffffffffffffffffffffff168273ffffffffffffffffffffffffffffffffffffffff16036113b2576040517f08c379a00000000000000000000000000000000000000000000000000000000081526004016113a990613327565b60405180910390fd5b6113bf8383836001611d88565b8273ffffffffffffffffffffffffffffffffffffffff166113df8261083b565b73ffffffffffffffffffffffffffffffffffffffff1614611435576040517f08c379a000000000000000000000000000000000000000000000000000000000815260040161142c90613295565b60405180910390fd5b6004600082815260200190815260200160002060006101000a81549073ffffffffffffffffffffffffffffffffffffffff02191690556001600360008573ffffffffffffffffffffffffffffffffffffffff1673ffffffffffffffffffffffffffffffffffffffff168152602001908152602001600020600082825403925050819055506001600360008473ffffffffffffffffffffffffffffffffffffffff1673ffffffffffffffffffffffffffffffffffffffff16815260200190815260200160002060008282540192505081905550816002600083815260200190815260200160002060006101000a81548173ffffffffffffffffffffffffffffffffffffffff021916908373ffffffffffffffffffffffffffffffffffffffff160217905550808273ffffffffffffffffffffffffffffffffffffffff168473ffffffffffffffffffffffffffffffffffffffff167fddf252ad1be2c89b69c2b068fc378daa952ba7f163c4a11628f55a4df523b3ef60405160405180910390a46115c18383836001611eae565b505050565b6115ce611177565b73ffffffffffffffffffffffffffffffffffffffff166115ec610d65565b73ffffffffffffffffffffffffffffffffffffffff1614611642576040517f08c379a000000000000000000000000000000000000000000000000000000000815260040161163990613393565b60405180910390fd5b565b60006002600083815260200190815260200160002060009054906101000a900473ffffffffffffffffffffffffffffffffffffffff169050919050565b600081600001549050919050565b60606000600161169e84611eb4565b01905060008167ffffffffffffffff8111156116bd576116bc6128d9565b5b6040519080825280601f01601f1916602001820160405280156116ef5781602001600182028036833780820191505090505b509050600082602001820190505b600115611752578080600190039150507f3031323334353637383961626364656600000000000000000000000000000000600a86061a8153600a8581611746576117456133b3565b5b049450600085036116fd575b819350505050919050565b6060600060028360026117709190613411565b61177a9190613453565b67ffffffffffffffff811115611793576117926128d9565b5b6040519080825280601f01601f1916602001820160405280156117c55781602001600182028036833780820191505090505b5090507f3000000000000000000000000000000000000000000000000000000000000000816000815181106117fd576117fc613487565b5b60200101907effffffffffffffffffffffffffffffffffffffffffffffffffffffffffffff1916908160001a9053507f78000000000000000000000000000000000000000000000000000000000000008160018151811061186157611860613487565b5b60200101907effffffffffffffffffffffffffffffffffffffffffffffffffffffffffffff1916908160001a905350600060018460026118a19190613411565b6118ab9190613453565b90505b600181111561194b577f3031323334353637383961626364656600000000000000000000000000000000600f8616601081106118ed576118ec613487565b5b1a60f81b82828151811061190457611903613487565b5b60200101907effffffffffffffffffffffffffffffffffffffffffffffffffffffffffffff1916908160001a905350600485901c945080611944906134b6565b90506118ae565b506000841461198f576040517f08c379a00000000000000000000000000000000000000000000000000000000081526004016119869061352b565b60405180910390fd5b8091505092915050565b6001816000016000828254019250508190555050565b6119c9828260405180602001604052806000815250612007565b5050565b6119d682611d47565b611a15576040517f08c379a0000000000000000000000000000000000000000000000000000000008152600401611a0c906135bd565b60405180910390fd5b80600660008481526020019081526020016000209081611a359190613789565b505050565b6000600760009054906101000a900473ffffffffffffffffffffffffffffffffffffffff16905081600760006101000a81548173ffffffffffffffffffffffffffffffffffffffff021916908373ffffffffffffffffffffffffffffffffffffffff1602179055508173ffffffffffffffffffffffffffffffffffffffff168173ffffffffffffffffffffffffffffffffffffffff167f8be0079c531659141344cd1fd0a4f28419497f9722a3daafe3b4186f6b6457e060405160405180910390a35050565b8173ffffffffffffffffffffffffffffffffffffffff168373ffffffffffffffffffffffffffffffffffffffff1603611b6e576040517f08c379a0000000000000000000000000000000000000000000000000000000008152600401611b65906138a7565b60405180910390fd5b80600560008573ffffffffffffffffffffffffffffffffffffffff1673ffffffffffffffffffffffffffffffffffffffff16815260200190815260200160002060008473ffffffffffffffffffffffffffffffffffffffff1673ffffffffffffffffffffffffffffffffffffffff16815260200190815260200160002060006101000a81548160ff0219169083151502179055508173ffffffffffffffffffffffffffffffffffffffff168373ffffffffffffffffffffffffffffffffffffffff167f17307eab39ab6107e8899845ad3d59bd9653f200f220920489ca2b5937696c3183604051611c5f91906124dd565b60405180910390a3505050565b611c778484846112cd565b611c8384848484612062565b611cc2576040517f08c379a0000000000000000000000000000000000000000000000000000000008152600401611cb990613939565b60405180910390fd5b50505050565b606060405180602001604052806000815250905090565b6060611cea8261112c565b6000611cf4611cc8565b90506000815111611d145760405180602001604052806000815250611d3f565b80611d1e8461168f565b604051602001611d2f929190612d85565b6040516020818303038152906040525b915050919050565b60008073ffffffffffffffffffffffffffffffffffffffff16611d6983611644565b73ffffffffffffffffffffffffffffffffffffffff1614159050919050565b6001811115611ea857600073ffffffffffffffffffffffffffffffffffffffff168473ffffffffffffffffffffffffffffffffffffffff1614611e1c5780600360008673ffffffffffffffffffffffffffffffffffffffff1673ffffffffffffffffffffffffffffffffffffffff1681526020019081526020016000206000828254611e149190613959565b925050819055505b600073ffffffffffffffffffffffffffffffffffffffff168373ffffffffffffffffffffffffffffffffffffffff1614611ea75780600360008573ffffffffffffffffffffffffffffffffffffffff1673ffffffffffffffffffffffffffffffffffffffff1681526020019081526020016000206000828254611e9f9190613453565b925050819055505b5b50505050565b50505050565b600080600090507a184f03e93ff9f4daa797ed6e38ed64bf6a1f0100000000000000008310611f12577a184f03e93ff9f4daa797ed6e38ed64bf6a1f0100000000000000008381611f0857611f076133b3565b5b0492506040810190505b6d04ee2d6d415b85acef81000000008310611f4f576d04ee2d6d415b85acef81000000008381611f4557611f446133b3565b5b0492506020810190505b662386f26fc100008310611f7e57662386f26fc100008381611f7457611f736133b3565b5b0492506010810190505b6305f5e1008310611fa7576305f5e1008381611f9d57611f9c6133b3565b5b0492506008810190505b6127108310611fcc576127108381611fc257611fc16133b3565b5b0492506004810190505b60648310611fef5760648381611fe557611fe46133b3565b5b0492506002810190505b600a8310611ffe576001810190505b80915050919050565b61201183836121e9565b61201e6000848484612062565b61205d576040517f08c379a000000000000000000000000000000000000000000000000000000000815260040161205490613939565b60405180910390fd5b505050565b60006120838473ffffffffffffffffffffffffffffffffffffffff16612406565b156121dc578373ffffffffffffffffffffffffffffffffffffffff1663150b7a026120ac611177565b8786866040518563ffffffff1660e01b81526004016120ce94939291906139d7565b6020604051808303816000875af192505050801561210a57506040513d601f19601f820116820180604052508101906121079190613a38565b60015b61218c573d806000811461213a576040519150601f19603f3d011682016040523d82523d6000602084013e61213f565b606091505b506000815103612184576040517f08c379a000000000000000000000000000000000000000000000000000000000815260040161217b90613939565b60405180910390fd5b805181602001fd5b63150b7a0260e01b7bffffffffffffffffffffffffffffffffffffffffffffffffffffffff1916817bffffffffffffffffffffffffffffffffffffffffffffffffffffffff1916149150506121e1565b600190505b949350505050565b600073ffffffffffffffffffffffffffffffffffffffff168273ffffffffffffffffffffffffffffffffffffffff1603612258576040517f08c379a000000000000000000000000000000000000000000000000000000000815260040161224f90613ab1565b60405180910390fd5b61226181611d47565b156122a1576040517f08c379a000000000000000000000000000000000000000000000000000000000815260040161229890613b1d565b60405180910390fd5b6122af600083836001611d88565b6122b881611d47565b156122f8576040517f08c379a00000000000000000000000000000000000000000000000000000000081526004016122ef90613b1d565b60405180910390fd5b6001600360008473ffffffffffffffffffffffffffffffffffffffff1673ffffffffffffffffffffffffffffffffffffffff16815260200190815260200160002060008282540192505081905550816002600083815260200190815260200160002060006101000a81548173ffffffffffffffffffffffffffffffffffffffff021916908373ffffffffffffffffffffffffffffffffffffffff160217905550808273ffffffffffffffffffffffffffffffffffffffff16600073ffffffffffffffffffffffffffffffffffffffff167fddf252ad1be2c89b69c2b068fc378daa952ba7f163c4a11628f55a4df523b3ef60405160405180910390a4612402600083836001611eae565b5050565b6000808273ffffffffffffffffffffffffffffffffffffffff163b119050919050565b6000604051905090565b600080fd5b600080fd5b60007fffffffff0000000000000000000000000000000000000000000000000000000082169050919050565b6124728161243d565b811461247d57600080fd5b50565b60008135905061248f81612469565b92915050565b6000602082840312156124ab576124aa612433565b5b60006124b984828501612480565b91505092915050565b60008115159050919050565b6124d7816124c2565b82525050565b60006020820190506124f260008301846124ce565b92915050565b600081519050919050565b600082825260208201905092915050565b60005b83811015612532578082015181840152602081019050612517565b60008484015250505050565b6000601f19601f8301169050919050565b600061255a826124f8565b6125648185612503565b9350612574818560208601612514565b61257d8161253e565b840191505092915050565b600060208201905081810360008301526125a2818461254f565b905092915050565b6000819050919050565b6125bd816125aa565b81146125c857600080fd5b50565b6000813590506125da816125b4565b92915050565b6000602082840312156125f6576125f5612433565b5b6000612604848285016125cb565b91505092915050565b600073ffffffffffffffffffffffffffffffffffffffff82169050919050565b60006126388261260d565b9050919050565b6126488161262d565b82525050565b6000602082019050612663600083018461263f565b92915050565b6126728161262d565b811461267d57600080fd5b50565b60008135905061268f81612669565b92915050565b600080604083850312156126ac576126ab612433565b5b60006126ba85828601612680565b92505060206126cb858286016125cb565b9150509250929050565b6000806000606084860312156126ee576126ed612433565b5b60006126fc86828701612680565b935050602061270d86828701612680565b925050604061271e868287016125cb565b9150509250925092565b600080fd5b600080fd5b600080fd5b60008083601f84011261274d5761274c612728565b5b8235905067ffffffffffffffff81111561276a5761276961272d565b5b60208301915083600182028301111561278657612785612732565b5b9250929050565b600080fd5b6000606082840312156127a8576127a761278d565b5b81905092915050565b6000806000608084860312156127ca576127c9612433565b5b600084013567ffffffffffffffff8111156127e8576127e7612438565b5b6127f486828701612737565b9350935050602061280786828701612792565b9150509250925092565b61281a816125aa565b82525050565b60006020820190506128356000830184612811565b92915050565b60006020828403121561285157612850612433565b5b600061285f84828501612680565b91505092915050565b612871816124c2565b811461287c57600080fd5b50565b60008135905061288e81612868565b92915050565b600080604083850312156128ab576128aa612433565b5b60006128b985828601612680565b92505060206128ca8582860161287f565b9150509250929050565b600080fd5b7f4e487b7100000000000000000000000000000000000000000000000000000000600052604160045260246000fd5b6129118261253e565b810181811067ffffffffffffffff821117156129305761292f6128d9565b5b80604052505050565b6000612943612429565b905061294f8282612908565b919050565b600067ffffffffffffffff82111561296f5761296e6128d9565b5b6129788261253e565b9050602081019050919050565b82818337600083830152505050565b60006129a76129a284612954565b612939565b9050828152602081018484840111156129c3576129c26128d4565b5b6129ce848285612985565b509392505050565b600082601f8301126129eb576129ea612728565b5b81356129fb848260208601612994565b91505092915050565b60008060008060808587031215612a1e57612a1d612433565b5b6000612a2c87828801612680565b9450506020612a3d87828801612680565b9350506040612a4e878288016125cb565b925050606085013567ffffffffffffffff811115612a6f57612a6e612438565b5b612a7b878288016129d6565b91505092959194509250565b60008060408385031215612a9e57612a9d612433565b5b6000612aac85828601612680565b9250506020612abd85828601612680565b9150509250929050565b7f4e487b7100000000000000000000000000000000000000000000000000000000600052602260045260246000fd5b60006002820490506001821680612b0e57607f821691505b602082108103612b2157612b20612ac7565b5b50919050565b7f4552433732313a20617070726f76616c20746f2063757272656e74206f776e6560008201527f7200000000000000000000000000000000000000000000000000000000000000602082015250565b6000612b83602183612503565b9150612b8e82612b27565b604082019050919050565b60006020820190508181036000830152612bb281612b76565b9050919050565b7f4552433732313a20617070726f76652063616c6c6572206973206e6f7420746f60008201527f6b656e206f776e6572206f7220617070726f76656420666f7220616c6c000000602082015250565b6000612c15603d83612503565b9150612c2082612bb9565b604082019050919050565b60006020820190508181036000830152612c4481612c08565b9050919050565b7f4552433732313a2063616c6c6572206973206e6f7420746f6b656e206f776e6560008201527f72206f7220617070726f76656400000000000000000000000000000000000000602082015250565b6000612ca7602d83612503565b9150612cb282612c4b565b604082019050919050565b60006020820190508181036000830152612cd681612c9a565b9050919050565b7f4552433732313a20696e76616c696420746f6b656e2049440000000000000000600082015250565b6000612d13601883612503565b9150612d1e82612cdd565b602082019050919050565b60006020820190508181036000830152612d4281612d06565b9050919050565b600081905092915050565b6000612d5f826124f8565b612d698185612d49565b9350612d79818560208601612514565b80840191505092915050565b6000612d918285612d54565b9150612d9d8284612d54565b91508190509392505050565b6000612db58284612d54565b915081905092915050565b600081519050919050565b600081905092915050565b6000612de182612dc0565b612deb8185612dcb565b9350612dfb818560208601612514565b80840191505092915050565b6000819050919050565b6000819050919050565b612e2c612e2782612e07565b612e11565b82525050565b6000612e3e8285612dd6565b9150612e4a8284612e1b565b6020820191508190509392505050565b600060ff82169050919050565b612e7081612e5a565b8114612e7b57600080fd5b50565b600081359050612e8d81612e67565b92915050565b600060208284031215612ea957612ea8612433565b5b6000612eb784828501612e7e565b91505092915050565b612ec981612e07565b82525050565b612ed881612e5a565b82525050565b6000608082019050612ef36000830187612ec0565b612f006020830186612ecf565b612f0d6040830185612ec0565b612f1a6060830184612ec0565b95945050505050565b7f5468652070726f7669646564207369676e617475726520697320696e76616c6960008201527f642e000000000000000000000000000000000000000000000000000000000000602082015250565b6000612f7f602283612503565b9150612f8a82612f23565b604082019050919050565b60006020820190508181036000830152612fae81612f72565b9050919050565b7f5468652072657175657374656420616374696f6e20657863656564732074686560008201527f20617661696c61626c6520746f6b656e20737570706c792e0000000000000000602082015250565b6000613011603883612503565b915061301c82612fb5565b604082019050919050565b6000602082019050818103600083015261304081613004565b9050919050565b7f496e73756666696369656e742045544820686173206265656e207472616e736d60008201527f69747465642e20546865206d696e696d756d20726571756972656420616d6f7560208201527f6e7420746f206d696e7420616e204e465420697320302e3034204554482e0000604082015250565b60006130c9605e83612503565b91506130d482613047565b606082019050919050565b600060208201905081810360008301526130f8816130bc565b9050919050565b7f4552433732313a2061646472657373207a65726f206973206e6f74206120766160008201527f6c6964206f776e65720000000000000000000000000000000000000000000000602082015250565b600061315b602983612503565b9150613166826130ff565b604082019050919050565b6000602082019050818103600083015261318a8161314e565b9050919050565b7f4f776e61626c653a206e6577206f776e657220697320746865207a65726f206160008201527f6464726573730000000000000000000000000000000000000000000000000000602082015250565b60006131ed602683612503565b91506131f882613191565b604082019050919050565b6000602082019050818103600083015261321c816131e0565b9050919050565b7f4552433732313a207472616e736665722066726f6d20696e636f72726563742060008201527f6f776e6572000000000000000000000000000000000000000000000000000000602082015250565b600061327f602583612503565b915061328a82613223565b604082019050919050565b600060208201905081810360008301526132ae81613272565b9050919050565b7f4552433732313a207472616e7366657220746f20746865207a65726f2061646460008201527f7265737300000000000000000000000000000000000000000000000000000000602082015250565b6000613311602483612503565b915061331c826132b5565b604082019050919050565b6000602082019050818103600083015261334081613304565b9050919050565b7f4f776e61626c653a2063616c6c6572206973206e6f7420746865206f776e6572600082015250565b600061337d602083612503565b915061338882613347565b602082019050919050565b600060208201905081810360008301526133ac81613370565b9050919050565b7f4e487b7100000000000000000000000000000000000000000000000000000000600052601260045260246000fd5b7f4e487b7100000000000000000000000000000000000000000000000000000000600052601160045260246000fd5b600061341c826125aa565b9150613427836125aa565b9250828202613435816125aa565b9150828204841483151761344c5761344b6133e2565b5b5092915050565b600061345e826125aa565b9150613469836125aa565b9250828201905080821115613481576134806133e2565b5b92915050565b7f4e487b7100000000000000000000000000000000000000000000000000000000600052603260045260246000fd5b60006134c1826125aa565b9150600082036134d4576134d36133e2565b5b600182039050919050565b7f537472696e67733a20686578206c656e67746820696e73756666696369656e74600082015250565b6000613515602083612503565b9150613520826134df565b602082019050919050565b6000602082019050818103600083015261354481613508565b9050919050565b7f45524337323155524953746f726167653a2055524920736574206f66206e6f6e60008201527f6578697374656e7420746f6b656e000000000000000000000000000000000000602082015250565b60006135a7602e83612503565b91506135b28261354b565b604082019050919050565b600060208201905081810360008301526135d68161359a565b9050919050565b60008190508160005260206000209050919050565b60006020601f8301049050919050565b600082821b905092915050565b60006008830261363f7fffffffffffffffffffffffffffffffffffffffffffffffffffffffffffffffff82613602565b6136498683613602565b95508019841693508086168417925050509392505050565b6000819050919050565b600061368661368161367c846125aa565b613661565b6125aa565b9050919050565b6000819050919050565b6136a08361366b565b6136b46136ac8261368d565b84845461360f565b825550505050565b600090565b6136c96136bc565b6136d4818484613697565b505050565b5b818110156136f8576136ed6000826136c1565b6001810190506136da565b5050565b601f82111561373d5761370e816135dd565b613717846135f2565b81016020851015613726578190505b61373a613732856135f2565b8301826136d9565b50505b505050565b600082821c905092915050565b600061376060001984600802613742565b1980831691505092915050565b6000613779838361374f565b9150826002028217905092915050565b613792826124f8565b67ffffffffffffffff8111156137ab576137aa6128d9565b5b6137b58254612af6565b6137c08282856136fc565b600060209050601f8311600181146137f357600084156137e1578287015190505b6137eb858261376d565b865550613853565b601f198416613801866135dd565b60005b8281101561382957848901518255600182019150602085019450602081019050613804565b868310156138465784890151613842601f89168261374f565b8355505b6001600288020188555050505b505050505050565b7f4552433732313a20617070726f766520746f2063616c6c657200000000000000600082015250565b6000613891601983612503565b915061389c8261385b565b602082019050919050565b600060208201905081810360008301526138c081613884565b9050919050565b7f4552433732313a207472616e7366657220746f206e6f6e20455243373231526560008201527f63656976657220696d706c656d656e7465720000000000000000000000000000602082015250565b6000613923603283612503565b915061392e826138c7565b604082019050919050565b6000602082019050818103600083015261395281613916565b9050919050565b6000613964826125aa565b915061396f836125aa565b9250828203905081811115613987576139866133e2565b5b92915050565b600082825260208201905092915050565b60006139a982612dc0565b6139b3818561398d565b93506139c3818560208601612514565b6139cc8161253e565b840191505092915050565b60006080820190506139ec600083018761263f565b6139f9602083018661263f565b613a066040830185612811565b8181036060830152613a18818461399e565b905095945050505050565b600081519050613a3281612469565b92915050565b600060208284031215613a4e57613a4d612433565b5b6000613a5c84828501613a23565b91505092915050565b7f4552433732313a206d696e7420746f20746865207a65726f2061646472657373600082015250565b6000613a9b602083612503565b9150613aa682613a65565b602082019050919050565b60006020820190508181036000830152613aca81613a8e565b9050919050565b7f4552433732313a20746f6b656e20616c7265616479206d696e74656400000000600082015250565b6000613b07601c83612503565b9150613b1282613ad1565b602082019050919050565b60006020820190508181036000830152613b3681613afa565b905091905056fea264697066735822122020a9af16cbe8af558373b4850beca1e246bc6161baf9b77220410aeddeb5bb1364736f6c63430008110033",
  "linkReferences": {},
  "deployedLinkReferences": {}
}